{"abi":[{"type":"constructor","inputs":[{"name":"_initialAdmin","type":"address","internalType":"address"},{"name":"_addNewCoinFee","type":"uint256","internalType":"uint256"}],"stateMutability":"nonpayable"},{"type":"function","name":"addNewCoin","inputs":[{"name":"_coinAddress","type":"address","internalType":"address"}],"outputs":[{"name":"","type":"uint256","internalType":"uint256"}],"stateMutability":"payable"},{"type":"function","name":"addNewCoinFee","inputs":[],"outputs":[{"name":"","type":"uint256","internalType":"uint256"}],"stateMutability":"view"},{"type":"function","name":"addressCanPay","inputs":[{"name":"_paymentMethodId","type":"uint256","internalType":"uint256"},{"name":"_address","type":"address","internalType":"address"},{"name":"_amount","type":"uint256","internalType":"uint256"}],"outputs":[{"name":"balanceNeeded","type":"uint256","internalType":"uint256"},{"name":"allowanceNeeded","type":"uint256","internalType":"uint256"}],"stateMutability":"view"},{"type":"function","name":"adminFeeRecipient","inputs":[],"outputs":[{"name":"","type":"address","internalType":"address"}],"stateMutability":"view"},{"type":"function","name":"banAddresses","inputs":[{"name":"_addresses","type":"address[]","internalType":"address[]"},{"name":"_undoBan","type":"bool","internalType":"bool"}],"outputs":[],"stateMutability":"nonpayable"},{"type":"function","name":"banCoins","inputs":[{"name":"_coins","type":"address[]","internalType":"address[]"},{"name":"_undoBan","type":"bool","internalType":"bool"}],"outputs":[],"stateMutability":"nonpayable"},{"type":"function","name":"bannedAddresses","inputs":[{"name":"","type":"address","internalType":"address"}],"outputs":[{"name":"","type":"bool","internalType":"bool"}],"stateMutability":"view"},{"type":"function","name":"bannedCoins","inputs":[{"name":"","type":"address","internalType":"address"}],"outputs":[{"name":"","type":"bool","internalType":"bool"}],"stateMutability":"view"},{"type":"function","name":"coinCount","inputs":[],"outputs":[{"name":"","type":"uint256","internalType":"uint256"}],"stateMutability":"view"},{"type":"function","name":"getIdOfPaymentMethod","inputs":[{"name":"_coinAddress","type":"address","internalType":"address"}],"outputs":[{"name":"","type":"uint256","internalType":"uint256"}],"stateMutability":"view"},{"type":"function","name":"getPaymentMethod","inputs":[{"name":"_paymentMethodId","type":"uint256","internalType":"uint256"}],"outputs":[{"name":"coin","type":"address","internalType":"contract IERC20"}],"stateMutability":"view"},{"type":"function","name":"getPaymentMethods","inputs":[{"name":"_paymentMethodId","type":"uint256","internalType":"uint256"},{"name":"_count","type":"uint256","internalType":"uint256"}],"outputs":[{"name":"","type":"address[]","internalType":"contract IERC20[]"}],"stateMutability":"view"},{"type":"function","name":"importCoin","inputs":[{"name":"_coinAddress","type":"address","internalType":"address"}],"outputs":[{"name":"","type":"uint256","internalType":"uint256"}],"stateMutability":"nonpayable"},{"type":"function","name":"operator","inputs":[],"outputs":[{"name":"","type":"address","internalType":"address"}],"stateMutability":"view"},{"type":"function","name":"owner","inputs":[],"outputs":[{"name":"","type":"address","internalType":"address"}],"stateMutability":"view"},{"type":"function","name":"renounceOwnership","inputs":[],"outputs":[],"stateMutability":"nonpayable"},{"type":"function","name":"setAddNewCoinFee","inputs":[{"name":"_fee","type":"uint256","internalType":"uint256"}],"outputs":[],"stateMutability":"nonpayable"},{"type":"function","name":"setAdminFeeRecipient","inputs":[{"name":"_recipient","type":"address","internalType":"address"}],"outputs":[],"stateMutability":"nonpayable"},{"type":"function","name":"setOperator","inputs":[{"name":"_operator","type":"address","internalType":"address"}],"outputs":[],"stateMutability":"nonpayable"},{"type":"function","name":"transferAdminFees","inputs":[],"outputs":[],"stateMutability":"nonpayable"},{"type":"function","name":"transferOwnership","inputs":[{"name":"newOwner","type":"address","internalType":"address"}],"outputs":[],"stateMutability":"nonpayable"},{"type":"event","name":"AddNewCoinFeeChanged","inputs":[{"name":"newFee","type":"uint256","indexed":false,"internalType":"uint256"}],"anonymous":false},{"type":"event","name":"AddressBanned","inputs":[{"name":"bannedAddress","type":"address","indexed":true,"internalType":"address"}],"anonymous":false},{"type":"event","name":"AddressUnbanned","inputs":[{"name":"unbannedAddress","type":"address","indexed":true,"internalType":"address"}],"anonymous":false},{"type":"event","name":"CoinAdded","inputs":[{"name":"coin","type":"address","indexed":true,"internalType":"address"},{"name":"coinId","type":"uint256","indexed":true,"internalType":"uint256"}],"anonymous":false},{"type":"event","name":"CoinBanned","inputs":[{"name":"coin","type":"address","indexed":true,"internalType":"address"},{"name":"coinId","type":"uint256","indexed":true,"internalType":"uint256"}],"anonymous":false},{"type":"event","name":"CoinUnbanned","inputs":[{"name":"coin","type":"address","indexed":true,"internalType":"address"},{"name":"coinId","type":"uint256","indexed":true,"internalType":"uint256"}],"anonymous":false},{"type":"event","name":"OwnershipTransferred","inputs":[{"name":"previousOwner","type":"address","indexed":true,"internalType":"address"},{"name":"newOwner","type":"address","indexed":true,"internalType":"address"}],"anonymous":false},{"type":"error","name":"AddressNotAllowed","inputs":[]},{"type":"error","name":"CoinAlreadyExists","inputs":[]},{"type":"error","name":"IncorrectFeePayment","inputs":[]},{"type":"error","name":"InvalidPaymentMethodId","inputs":[]},{"type":"error","name":"OwnableInvalidOwner","inputs":[{"name":"owner","type":"address","internalType":"address"}]},{"type":"error","name":"OwnableUnauthorizedAccount","inputs":[{"name":"account","type":"address","internalType":"address"}]},{"type":"error","name":"PaymentMethodNotAllowed","inputs":[]}],"bytecode":{"object":"0x6080346100e657601f610dc138819003918201601f19168301916001600160401b038311848410176100ea5780849260409485528339810103126100e65780516001600160a01b03811691908290036100e6576020015181156100d3575f80546001600160a01b0319811684178255604051939182916001600160a01b0316907f8be0079c531659141344cd1fd0a4f28419497f9722a3daafe3b4186f6b6457e09080a3600880546001600160a01b03199081168317909155600780549091169091179055600655610cc290816100ff8239f35b631e4fbdf760e01b5f525f60045260245ffd5b5f80fd5b634e487b7160e01b5f52604160045260245ffdfe6080806040526004361015610012575f80fd5b5f3560e01c908163057f0ae3146107bb575080631c9441001461078b57806323a53c321461073f57806343227f6a146106d357806351ef604e1461069d57806355bc872514610660578063570ca735146106385780635a489266146105f35780635c44c5be146104ce578063678fd289146104b15780636fa3db4514610494578063715018a61461043d5780638da5cb5b1461041657806397a125a8146103f3578063b3ab15fb146103b0578063c02f383f14610358578063d3311fca14610316578063e03ccc4e146102a7578063e7269562146101b4578063ee11d5eb1461018c5763f2fde38b14610103575f80fd5b346101885760203660031901126101885761011c6107f4565b610124610bce565b6001600160a01b03168015610175575f80546001600160a01b03198116831782556001600160a01b0316907f8be0079c531659141344cd1fd0a4f28419497f9722a3daafe3b4186f6b6457e09080a3005b631e4fbdf760e01b5f525f60045260245ffd5b5f80fd5b34610188575f366003190112610188576008546040516001600160a01b039091168152602090f35b34610188576101c236610858565b6007546001600160a01b031633036102985715905f5b8151811015610296576001906001600160a01b036101f68285610968565b51165f5260046020526102188460405f209060ff801983541691151516179055565b831561025b57818060a01b0361022e8285610968565b51167f4e1f1083e536396ee005a5640fc3beb4d082ac0ec24882c6b8b35121beb61c5c5f80a25b016101d8565b818060a01b0361026b8285610968565b51167faf21b055f404aae56187594ef6bc522fbab24d4a05adc05c41c16a844b73b0245f80a2610255565b005b6315a9bc2760e11b5f5260045ffd5b6020366003190112610188576102bb6107f4565b335f52600460205260ff60405f2054166102985760065434141580610301575b6102f2576102ea602091610bf4565b604051908152f35b63d392ed1360e01b5f5260045ffd5b506007546001600160a01b03163314156102db565b34610188576060366003190112610188576024356001600160a01b03811681036101885761034c60409160443590600435610aa0565b82519182526020820152f35b3461018857602036600319011261018857600754600435906001600160a01b03163303610298576020817fefea10962c4b99804a71727aadd05885dc22209b63771405949e6b29b49a27a992600655604051908152a1005b34610188576020366003190112610188576103c96107f4565b6103d1610bce565b600780546001600160a01b0319166001600160a01b0392909216919091179055005b346101885760203660031901126101885760206102ea6104116107f4565b610a73565b34610188575f366003190112610188575f546040516001600160a01b039091168152602090f35b34610188575f36600319011261018857610455610bce565b5f80546001600160a01b0319811682556001600160a01b03167f8be0079c531659141344cd1fd0a4f28419497f9722a3daafe3b4186f6b6457e08280a3005b34610188575f366003190112610188576020600654604051908152f35b34610188575f366003190112610188576020600554604051908152f35b34610188576104dc36610858565b6007549091906001600160a01b0316330361029857811591905f5b8151811015610296576001906001600160a01b036105158285610968565b51165f5260036020526105378560405f209060ff801983541691151516179055565b831561059957818060a01b0361054d8285610968565b5116828060a01b0361055f8386610968565b51165f52600260205260405f2054907f0f14c08d38b2d1bd9986babc89e90861cb02cb6dba5203fa01e85aa90870f79e5f80a35b016104f7565b818060a01b036105a98285610968565b5116828060a01b036105bb8386610968565b51165f52600260205260405f2054907f786ff369b90f10b0874f28549b75a3528f0b33f319f4a7eb16d9f0687296369f5f80a3610593565b34610188575f366003190112610188575f80808060018060a01b0360085416479082821561062f575bf11561062457005b6040513d5f823e3d90fd5b506108fc61061c565b34610188575f366003190112610188576007546040516001600160a01b039091168152602090f35b34610188576020366003190112610188576001600160a01b036106816107f4565b165f526004602052602060ff60405f2054166040519015158152f35b34610188576020366003190112610188576106b66107f4565b6007546001600160a01b03163303610298576102ea602091610bf4565b34610188576040366003190112610188576106f2602435600435610990565b6040518091602082016020835281518091526020604084019201905f5b81811061071d575050500390f35b82516001600160a01b031684528594506020938401939092019160010161070f565b34610188576020366003190112610188576107586107f4565b610760610bce565b6001600160a01b03168015610298576bffffffffffffffffffffffff60a01b60085416176008555f80f35b346101885760203660031901126101885760206107a96004356108f5565b6040516001600160a01b039091168152f35b34610188576020366003190112610188576020906001600160a01b036107df6107f4565b165f526003825260ff60405f20541615158152f35b600435906001600160a01b038216820361018857565b90601f8019910116810190811067ffffffffffffffff82111761082c57604052565b634e487b7160e01b5f52604160045260245ffd5b67ffffffffffffffff811161082c5760051b60200190565b6040600319820112610188576004359067ffffffffffffffff821161018857806023830112156101885781600401359061089182610840565b9261089f604051948561080a565b8284526024602085019360051b82010191821161018857602401915b8183106108d5575050509060243580151581036101885790565b82356001600160a01b0381168103610188578152602092830192016108bb565b801561092b575f52600160205260018060a01b0360405f205416805f52600360205260ff60405f2054166109265790565b505f90565b6301c5ebdd60e01b5f5260045ffd5b9190820180921161094757565b634e487b7160e01b5f52601160045260245ffd5b9190820391821161094757565b805182101561097c5760209160051b010190565b634e487b7160e01b5f52603260045260245ffd5b9190600554808411610a5757839082158015610a36575b610a1a575b50506109b781610840565b906109c5604051928361080a565b808252601f196109d482610840565b013660208401375f5b8181106109eb575090925050565b80610a006109fb6001938861093a565b6108f5565b610a0a8286610968565b90838060a01b03169052016109dd565b610a24925061095b565b6001810180911161094757825f6109ac565b509082610a429161093a565b5f1981019190821161094757808592116109a7565b50509050604051610a6960208261080a565b5f81525f36813790565b6001600160a01b03165f8181526003602052604090205460ff16610926575f52600260205260405f205490565b909291906001600160a01b0390610ab6906108f5565b16928315610bc4576040516370a0823160e01b81526001600160a01b0390911660048201819052602082602481885afa918215610624575f92610b8f575b50602090604460405180978193636eb1769f60e11b835260048301523360248301525afa938415610624575f94610b5b575b5080821115610b5457610b39908261095b565b9280821115610b4e57610b4b9161095b565b90565b50505f90565b505f610b39565b9093506020813d602011610b87575b81610b776020938361080a565b810103126101885751925f610b26565b3d9150610b6a565b9091506020813d602011610bbc575b81610bab6020938361080a565b810103126101885751906020610af4565b3d9150610b9e565b505090505f905f90565b5f546001600160a01b03163303610be157565b63118cdaa760e01b5f523360045260245ffd5b6001600160a01b03165f81815260026020526040902054610c7d576005545f19811461094757600101806005555f52600160205260405f20816bffffffffffffffffffffffff60a01b8254161790556005548181925f5260026020528160405f20557f63220ca4619ce6b463ed7b3f29efc3a7229f3f5190913ae0190448362e9b842a5f80a390565b635ad7689360e11b5f5260045ffdfea26469706673582212204381d0ffee24245453164d1bdb52a0ae7860c74413ba81900e1fe0ca171494e764736f6c634300081a0033","linkReferences":{}},"methodIdentifiers":{"addNewCoin(address)":"e03ccc4e","addNewCoinFee()":"6fa3db45","addressCanPay(uint256,address,uint256)":"d3311fca","adminFeeRecipient()":"ee11d5eb","banAddresses(address[],bool)":"e7269562","banCoins(address[],bool)":"5c44c5be","bannedAddresses(address)":"55bc8725","bannedCoins(address)":"057f0ae3","coinCount()":"678fd289","getIdOfPaymentMethod(address)":"97a125a8","getPaymentMethod(uint256)":"1c944100","getPaymentMethods(uint256,uint256)":"43227f6a","importCoin(address)":"51ef604e","operator()":"570ca735","owner()":"8da5cb5b","renounceOwnership()":"715018a6","setAddNewCoinFee(uint256)":"c02f383f","setAdminFeeRecipient(address)":"23a53c32","setOperator(address)":"b3ab15fb","transferAdminFees()":"5a489266","transferOwnership(address)":"f2fde38b"},"id":23}