{"abi":[{"type":"constructor","inputs":[{"name":"_stickerChain","type":"address","internalType":"address"},{"name":"_initialAdmin","type":"address","internalType":"address"},{"name":"_addNewObjectiveFee","type":"uint256","internalType":"uint256"}],"stateMutability":"nonpayable"},{"type":"function","name":"addNewObjective","inputs":[{"name":"_objective","type":"address","internalType":"contract IStickerObjective"}],"outputs":[{"name":"","type":"uint256","internalType":"uint256"}],"stateMutability":"payable"},{"type":"function","name":"addNewObjectiveFee","inputs":[],"outputs":[{"name":"","type":"uint256","internalType":"uint256"}],"stateMutability":"view"},{"type":"function","name":"adminFeeRecipient","inputs":[],"outputs":[{"name":"","type":"address","internalType":"address"}],"stateMutability":"view"},{"type":"function","name":"banAddresses","inputs":[{"name":"_addresses","type":"address[]","internalType":"address[]"},{"name":"_undoBan","type":"bool","internalType":"bool"}],"outputs":[],"stateMutability":"nonpayable"},{"type":"function","name":"banObjectives","inputs":[{"name":"_objectives","type":"address[]","internalType":"address[]"},{"name":"_undoBan","type":"bool","internalType":"bool"}],"outputs":[],"stateMutability":"nonpayable"},{"type":"function","name":"bannedAddresses","inputs":[{"name":"","type":"address","internalType":"address"}],"outputs":[{"name":"","type":"bool","internalType":"bool"}],"stateMutability":"view"},{"type":"function","name":"bannedObjectives","inputs":[{"name":"","type":"address","internalType":"address"}],"outputs":[{"name":"","type":"bool","internalType":"bool"}],"stateMutability":"view"},{"type":"function","name":"enableOperatorCreation","inputs":[],"outputs":[],"stateMutability":"nonpayable"},{"type":"function","name":"enablePublicCreation","inputs":[],"outputs":[],"stateMutability":"nonpayable"},{"type":"function","name":"getIdOfObjective","inputs":[{"name":"_objectiveAddress","type":"address","internalType":"address"}],"outputs":[{"name":"","type":"uint256","internalType":"uint256"}],"stateMutability":"view"},{"type":"function","name":"getObjective","inputs":[{"name":"_objectiveId","type":"uint256","internalType":"uint256"}],"outputs":[{"name":"objective","type":"address","internalType":"contract IStickerObjective"}],"stateMutability":"view"},{"type":"function","name":"getObjectiveMeta","inputs":[{"name":"_objectiveId","type":"uint256","internalType":"uint256"}],"outputs":[{"name":"","type":"tuple","internalType":"struct ObjectiveMeta","components":[{"name":"owner","type":"address","internalType":"address"},{"name":"feeRecipient","type":"address","internalType":"address"},{"name":"name","type":"string","internalType":"string"},{"name":"url","type":"string","internalType":"string"},{"name":"placeCount","type":"uint256","internalType":"uint256"},{"name":"placeList","type":"uint256[]","internalType":"uint256[]"}]}],"stateMutability":"view"},{"type":"function","name":"getObjectives","inputs":[{"name":"_offset","type":"uint256","internalType":"uint256"},{"name":"_count","type":"uint256","internalType":"uint256"}],"outputs":[{"name":"","type":"address[]","internalType":"contract IStickerObjective[]"}],"stateMutability":"view"},{"type":"function","name":"objectiveCount","inputs":[],"outputs":[{"name":"","type":"uint256","internalType":"uint256"}],"stateMutability":"view"},{"type":"function","name":"operator","inputs":[],"outputs":[{"name":"","type":"address","internalType":"address"}],"stateMutability":"view"},{"type":"function","name":"owner","inputs":[],"outputs":[{"name":"","type":"address","internalType":"address"}],"stateMutability":"view"},{"type":"function","name":"publicCreationEnabled","inputs":[],"outputs":[{"name":"","type":"bool","internalType":"bool"}],"stateMutability":"view"},{"type":"function","name":"renounceOwnership","inputs":[],"outputs":[],"stateMutability":"nonpayable"},{"type":"function","name":"setAddNewObjectiveFee","inputs":[{"name":"_fee","type":"uint256","internalType":"uint256"}],"outputs":[],"stateMutability":"nonpayable"},{"type":"function","name":"setAdminFeeRecipient","inputs":[{"name":"_recipient","type":"address","internalType":"address"}],"outputs":[],"stateMutability":"nonpayable"},{"type":"function","name":"setOperator","inputs":[{"name":"_operator","type":"address","internalType":"address"}],"outputs":[],"stateMutability":"nonpayable"},{"type":"function","name":"stickerChain","inputs":[],"outputs":[{"name":"","type":"address","internalType":"address"}],"stateMutability":"view"},{"type":"function","name":"transferAdminFees","inputs":[],"outputs":[],"stateMutability":"nonpayable"},{"type":"function","name":"transferOwnership","inputs":[{"name":"newOwner","type":"address","internalType":"address"}],"outputs":[],"stateMutability":"nonpayable"},{"type":"event","name":"AddNewObjectiveFeeChanged","inputs":[{"name":"newFee","type":"uint256","indexed":false,"internalType":"uint256"}],"anonymous":false},{"type":"event","name":"NewObjective","inputs":[{"name":"objective","type":"address","indexed":true,"internalType":"address"},{"name":"objectiveId","type":"uint256","indexed":true,"internalType":"uint256"},{"name":"dev","type":"address","indexed":true,"internalType":"address"}],"anonymous":false},{"type":"event","name":"ObjectiveBanned","inputs":[{"name":"objective","type":"address","indexed":true,"internalType":"address"},{"name":"objectiveId","type":"uint256","indexed":true,"internalType":"uint256"}],"anonymous":false},{"type":"event","name":"ObjectiveUnbanned","inputs":[{"name":"objective","type":"address","indexed":true,"internalType":"address"},{"name":"objectiveId","type":"uint256","indexed":true,"internalType":"uint256"}],"anonymous":false},{"type":"event","name":"OwnershipTransferred","inputs":[{"name":"previousOwner","type":"address","indexed":true,"internalType":"address"},{"name":"newOwner","type":"address","indexed":true,"internalType":"address"}],"anonymous":false},{"type":"error","name":"AddressNotAllowed","inputs":[]},{"type":"error","name":"IncorrectFeePayment","inputs":[]},{"type":"error","name":"ObjectiveAlreadyExists","inputs":[]},{"type":"error","name":"ObjectiveNotAllowed","inputs":[]},{"type":"error","name":"OwnableInvalidOwner","inputs":[{"name":"owner","type":"address","internalType":"address"}]},{"type":"error","name":"OwnableUnauthorizedAccount","inputs":[{"name":"account","type":"address","internalType":"address"}]},{"type":"error","name":"PublicCreationDisabled","inputs":[]}],"bytecode":{"object":"0x60a03461010657601f6111d438819003918201601f19168301916001600160401b0383118484101761010a57808492606094604052833981010312610106576100478161011e565b9060406100566020830161011e565b910151906001600160a01b031680156100f3575f80546001600160a01b0319811683178255604051949183916001600160a01b0316907f8be0079c531659141344cd1fd0a4f28419497f9722a3daafe3b4186f6b6457e09080a3608052600880546001600160a01b031990811683179091556001805490911690911790556007556110a19081610133823960805181818161038d01526109690152f35b631e4fbdf760e01b5f525f60045260245ffd5b5f80fd5b634e487b7160e01b5f52604160045260245ffd5b51906001600160a01b03821682036101065756fe6080806040526004361015610012575f80fd5b5f3560e01c90816304daaab514610a66575080631a6f9cad14610a3b57806323a53c32146109ef5780632d2dcd49146109c8578063384320dd1461099857806338a2258a146109545780634c90b1fb1461092757806355bc8725146108ea578063570ca735146108c25780635820eae1146107f95780635a489266146107bf578063620bdc1d146107535780636696285e14610736578063715018a6146106df5780638689db85146106c25780638da5cb5b1461069b578063b3ab15fb14610658578063c21ee48c1461061b578063da5cf28c146104f6578063e409c85d146102a8578063e72695621461023c578063ee11d5eb14610214578063f2fde38b1461018f5763f4e7293514610124575f80fd5b3461018b57602036600319011261018b57600154600435906001600160a01b0316330361017c576020817f07258071cdaa8ea2caf188b66407474efa16f0f4fec2f767e03a3ea8acd3a52b92600755604051908152a1005b6315a9bc2760e11b5f5260045ffd5b5f80fd5b3461018b57602036600319011261018b576101a8610a88565b6101b0611045565b6001600160a01b03168015610201575f80546001600160a01b03198116831782556001600160a01b0316907f8be0079c531659141344cd1fd0a4f28419497f9722a3daafe3b4186f6b6457e09080a3005b631e4fbdf760e01b5f525f60045260245ffd5b3461018b575f36600319011261018b576008546040516001600160a01b039091168152602090f35b3461018b5761024a36610b10565b6001546001600160a01b0316330361017c5715905f5b81518110156102a6576001906001600160a01b0361027e8285610f64565b51165f5260056020526102a08460405f209060ff801983541691151516179055565b01610260565b005b602036600319011261018b576004356001600160a01b0381169081900361018b576001546001600160a01b03811633036104be575b50335f52600560205260ff60405f20541680156104b6575b61017c57805f52600360205260405f20546104a757604051638da5cb5b60e01b8152602081600481855afa90811561046b575f91610488575b506001600160a01b03165f8181526005602052604090205490919060ff168015610480575b8015610476575b61017c57604051631c5112c560e11b8152602081600481855afa90811561046b575f9161043c575b506001600160a01b037f0000000000000000000000000000000000000000000000000000000000000000811691160361017c57600654915f198314610428576001602093019081600655815f526002845260405f20836bffffffffffffffffffffffff60a01b825416179055825f52600384528160405f205581604051937f9f95ad6d350e7a858eb1bc5ce2c01639db2efb07563475fac985267a056f39265f80a48152f35b634e487b7160e01b5f52601160045260245ffd5b61045e915060203d602011610464575b6104568183610ac2565b810190610c4b565b83610382565b503d61044c565b6040513d5f823e3d90fd5b503382141561035a565b508115610353565b6104a1915060203d602011610464576104568183610ac2565b8261032e565b632b3651e360e21b5f5260045ffd5b5080156102f5565b60a01c60ff16156104e75760075434036104d857816102dd565b63d392ed1360e01b5f5260045ffd5b637ba381a360e11b5f5260045ffd5b3461018b5761050436610b10565b6001549091906001600160a01b0316330361017c57811591905f5b81518110156102a6576001906001600160a01b0361053d8285610f64565b51165f52600460205261055f8560405f209060ff801983541691151516179055565b83156105c157818060a01b036105758285610f64565b5116828060a01b036105878386610f64565b51165f52600360205260405f2054907ffc6824db4ef69e453d55c8d7aae08cdd939860fedcd76a4a8e889e28777eb6385f80a35b0161051f565b818060a01b036105d18285610f64565b5116828060a01b036105e38386610f64565b51165f52600360205260405f2054907f1ddf6d4b81862fa66e9302cee29a55c50addb7994fa6993722956ac3547ad4355f80a36105bb565b3461018b57602036600319011261018b576001600160a01b0361063c610a88565b165f526004602052602060ff60405f2054166040519015158152f35b3461018b57602036600319011261018b57610671610a88565b610679611045565b600180546001600160a01b0319166001600160a01b0392909216919091179055005b3461018b575f36600319011261018b575f546040516001600160a01b039091168152602090f35b3461018b575f36600319011261018b576020600654604051908152f35b3461018b575f36600319011261018b576106f7611045565b5f80546001600160a01b0319811682556001600160a01b03167f8be0079c531659141344cd1fd0a4f28419497f9722a3daafe3b4186f6b6457e08280a3005b3461018b575f36600319011261018b576020600754604051908152f35b3461018b57604036600319011261018b57610772602435600435610f8c565b6040518091602082016020835281518091526020604084019201905f5b81811061079d575050500390f35b82516001600160a01b031684528594506020938401939092019160010161078f565b3461018b575f36600319011261018b575f80808060018060a01b036008541647908282156107f0575bf11561046b57005b506108fc6107e8565b3461018b57602036600319011261018b57610815600435610cdd565b60405180916020825260018060a01b03815116602083015260018060a01b03602082015116604083015260a061087361085d604084015160c0606087015260e0860190610a9e565b6060840151858203601f19016080870152610a9e565b91608081015182850152015190601f198382030160c0840152602080835192838152019201905f5b8181106108a9575050500390f35b825184528594506020938401939092019160010161089b565b3461018b575f36600319011261018b576001546040516001600160a01b039091168152602090f35b3461018b57602036600319011261018b576001600160a01b0361090b610a88565b165f526005602052602060ff60405f2054166040519015158152f35b3461018b575f36600319011261018b5761093f611045565b6001805460ff60a01b1916600160a01b179055005b3461018b575f36600319011261018b576040517f00000000000000000000000000000000000000000000000000000000000000006001600160a01b03168152602090f35b3461018b57602036600319011261018b5760206109b6600435610bdf565b6040516001600160a01b039091168152f35b3461018b575f36600319011261018b576109e0611045565b6001805460ff60a01b19169055005b3461018b57602036600319011261018b57610a08610a88565b610a10611045565b6001600160a01b0316801561017c576bffffffffffffffffffffffff60a01b60085416176008555f80f35b3461018b57602036600319011261018b576020610a5e610a59610a88565b610bad565b604051908152f35b3461018b575f36600319011261018b5760209060ff60015460a01c1615158152f35b600435906001600160a01b038216820361018b57565b805180835260209291819084018484015e5f828201840152601f01601f1916010190565b90601f8019910116810190811067ffffffffffffffff821117610ae457604052565b634e487b7160e01b5f52604160045260245ffd5b67ffffffffffffffff8111610ae45760051b60200190565b604060031982011261018b576004359067ffffffffffffffff821161018b578060238301121561018b57816004013590610b4982610af8565b92610b576040519485610ac2565b8284526024602085019360051b82010191821161018b57602401915b818310610b8d5750505090602435801515810361018b5790565b82356001600160a01b038116810361018b57815260209283019201610b73565b6001600160a01b03165f8181526004602052604090205460ff16610bda575f52600360205260405f205490565b505f90565b5f52600260205260018060a01b0360405f205416805f52600460205260ff60405f205416610bda5790565b6040519060c0820182811067ffffffffffffffff821117610ae457604052606060a0835f81525f602082015282604082015282808201525f60808201520152565b9081602091031261018b57516001600160a01b038116810361018b5790565b60208183031261018b5780519067ffffffffffffffff821161018b570181601f8201121561018b5780519067ffffffffffffffff8211610ae45760405192610cbc601f8401601f191660200185610ac2565b8284526020838301011161018b57815f9260208093018386015e8301015290565b610cef90610ce9610c0a565b50610bdf565b610cf7610c0a565b906001600160a01b03168015610f5357604051638da5cb5b60e01b8152602081600481855afa90811561046b575f91610f34575b506001600160a01b0316825260405163011a412160e61b8152602081600481855afa90811561046b575f91610f15575b506001600160a01b031660208301526040516306fdde0360e01b81525f81600481855afa90811561046b575f91610efb575b506040830152604051635600f04f60e01b81525f81600481855afa90811561046b575f91610ed9575b5060608301526040516343bc32c560e11b8152602081600481855afa90811561046b575f91610ea6575b506080830152604051625bc50960e51b8152905f90829060049082905afa90811561046b575f91610e15575b5060a082015290565b90503d805f833e610e268183610ac2565b81019060208183031261018b5780519067ffffffffffffffff821161018b57019080601f8301121561018b578151610e5d81610af8565b92610e6b6040519485610ac2565b81845260208085019260051b82010192831161018b57602001905b828210610e96575050505f610e0c565b8151815260209182019101610e86565b90506020813d602011610ed1575b81610ec160209383610ac2565b8101031261018b57516004610de0565b3d9150610eb4565b610ef591503d805f833e610eed8183610ac2565b810190610c6a565b5f610db6565b610f0f91503d805f833e610eed8183610ac2565b5f610d8d565b610f2e915060203d602011610464576104568183610ac2565b5f610d5b565b610f4d915060203d602011610464576104568183610ac2565b5f610d2b565b5090565b9190820391821161042857565b8051821015610f785760209160051b010190565b634e487b7160e01b5f52603260045260245ffd5b90600654908183101561102a5782019081831161042857808211611022575b50610fb68282610f57565b91610fc083610af8565b92610fce6040519485610ac2565b808452610fdd601f1991610af8565b01366020850137805b828110610ff35750505090565b80610fff600192610bdf565b61101261100c8584610f57565b87610f64565b90838060a01b0316905201610fe6565b90505f610fab565b50505060405161103b602082610ac2565b5f81525f36813790565b5f546001600160a01b0316330361105857565b63118cdaa760e01b5f523360045260245ffdfea2646970667358221220103fe5ce94c2ee6688e7baad1957b94d32ba03159469ae51363b436ed4d09cf164736f6c634300081a0033","linkReferences":{}},"methodIdentifiers":{"addNewObjective(address)":"e409c85d","addNewObjectiveFee()":"6696285e","adminFeeRecipient()":"ee11d5eb","banAddresses(address[],bool)":"e7269562","banObjectives(address[],bool)":"da5cf28c","bannedAddresses(address)":"55bc8725","bannedObjectives(address)":"c21ee48c","enableOperatorCreation()":"2d2dcd49","enablePublicCreation()":"4c90b1fb","getIdOfObjective(address)":"1a6f9cad","getObjective(uint256)":"384320dd","getObjectiveMeta(uint256)":"5820eae1","getObjectives(uint256,uint256)":"620bdc1d","objectiveCount()":"8689db85","operator()":"570ca735","owner()":"8da5cb5b","publicCreationEnabled()":"04daaab5","renounceOwnership()":"715018a6","setAddNewObjectiveFee(uint256)":"f4e72935","setAdminFeeRecipient(address)":"23a53c32","setOperator(address)":"b3ab15fb","stickerChain()":"38a2258a","transferAdminFees()":"5a489266","transferOwnership(address)":"f2fde38b"},"id":27}