{"abi":[{"type":"constructor","inputs":[{"name":"_payments","type":"address","internalType":"contract IPaymentMethod"},{"name":"_initialAdmin","type":"address","internalType":"address"},{"name":"_reputationFee","type":"uint256","internalType":"uint256"},{"name":"_registrationFee","type":"uint256","internalType":"uint256"}],"stateMutability":"nonpayable"},{"type":"fallback","stateMutability":"payable"},{"type":"receive","stateMutability":"payable"},{"type":"function","name":"accountCanSlapSticker","inputs":[{"name":"_account","type":"address","internalType":"address"},{"name":"_stickerId","type":"uint256","internalType":"uint256"},{"name":"_currentSlaps","type":"uint256","internalType":"uint256"}],"outputs":[{"name":"","type":"uint256","internalType":"uint256"}],"stateMutability":"view"},{"type":"function","name":"adminFeeRecipient","inputs":[],"outputs":[{"name":"","type":"address","internalType":"address payable"}],"stateMutability":"view"},{"type":"function","name":"banPublishers","inputs":[{"name":"_publishers","type":"address[]","internalType":"address[]"},{"name":"undoBan","type":"bool","internalType":"bool"}],"outputs":[],"stateMutability":"nonpayable"},{"type":"function","name":"banStickerDesigns","inputs":[{"name":"_stickerIds","type":"uint256[]","internalType":"uint256[]"},{"name":"undoBan","type":"bool","internalType":"bool"}],"outputs":[],"stateMutability":"nonpayable"},{"type":"function","name":"capSticker","inputs":[{"name":"_stickerId","type":"uint256","internalType":"uint256"}],"outputs":[],"stateMutability":"nonpayable"},{"type":"function","name":"costToPublish","inputs":[{"name":"_publisher","type":"address","internalType":"address"}],"outputs":[{"name":"","type":"uint256","internalType":"uint256"}],"stateMutability":"view"},{"type":"function","name":"getStickerDesign","inputs":[{"name":"_stickerId","type":"uint256","internalType":"uint256"}],"outputs":[{"name":"","type":"tuple","internalType":"struct StickerDesign","components":[{"name":"originalPublisher","type":"address","internalType":"address"},{"name":"currentPublisher","type":"address","internalType":"address"},{"name":"payoutAddress","type":"address","internalType":"address"},{"name":"publishedAt","type":"uint64","internalType":"uint64"},{"name":"price","type":"uint64","internalType":"uint64"},{"name":"paymentMethodId","type":"uint256","internalType":"uint256"},{"name":"limit","type":"uint64","internalType":"uint64"},{"name":"endTime","type":"uint64","internalType":"uint64"},{"name":"limitToHolders","type":"address","internalType":"address"},{"name":"metadataCID","type":"bytes","internalType":"bytes"},{"name":"imageCID","type":"string","internalType":"string"}]}],"stateMutability":"view"},{"type":"function","name":"getStickerDesignImageCID","inputs":[{"name":"_stickerId","type":"uint256","internalType":"uint256"}],"outputs":[{"name":"","type":"string","internalType":"string"}],"stateMutability":"view"},{"type":"function","name":"getStickerDesignPrice","inputs":[{"name":"_stickerId","type":"uint256","internalType":"uint256"}],"outputs":[{"name":"paymentMethodId","type":"uint256","internalType":"uint256"},{"name":"price","type":"uint64","internalType":"uint64"},{"name":"recipient","type":"address","internalType":"address"}],"stateMutability":"view"},{"type":"function","name":"getStickerDesigns","inputs":[{"name":"_stickerIds","type":"uint256[]","internalType":"uint256[]"}],"outputs":[{"name":"","type":"tuple[]","internalType":"struct StickerDesign[]","components":[{"name":"originalPublisher","type":"address","internalType":"address"},{"name":"currentPublisher","type":"address","internalType":"address"},{"name":"payoutAddress","type":"address","internalType":"address"},{"name":"publishedAt","type":"uint64","internalType":"uint64"},{"name":"price","type":"uint64","internalType":"uint64"},{"name":"paymentMethodId","type":"uint256","internalType":"uint256"},{"name":"limit","type":"uint64","internalType":"uint64"},{"name":"endTime","type":"uint64","internalType":"uint64"},{"name":"limitToHolders","type":"address","internalType":"address"},{"name":"metadataCID","type":"bytes","internalType":"bytes"},{"name":"imageCID","type":"string","internalType":"string"}]}],"stateMutability":"view"},{"type":"function","name":"getStickerDesigns","inputs":[{"name":"_start","type":"uint256","internalType":"uint256"},{"name":"_count","type":"uint256","internalType":"uint256"}],"outputs":[{"name":"","type":"tuple[]","internalType":"struct StickerDesign[]","components":[{"name":"originalPublisher","type":"address","internalType":"address"},{"name":"currentPublisher","type":"address","internalType":"address"},{"name":"payoutAddress","type":"address","internalType":"address"},{"name":"publishedAt","type":"uint64","internalType":"uint64"},{"name":"price","type":"uint64","internalType":"uint64"},{"name":"paymentMethodId","type":"uint256","internalType":"uint256"},{"name":"limit","type":"uint64","internalType":"uint64"},{"name":"endTime","type":"uint64","internalType":"uint64"},{"name":"limitToHolders","type":"address","internalType":"address"},{"name":"metadataCID","type":"bytes","internalType":"bytes"},{"name":"imageCID","type":"string","internalType":"string"}]}],"stateMutability":"view"},{"type":"function","name":"isBannedPublisher","inputs":[{"name":"_publisher","type":"address","internalType":"address"}],"outputs":[{"name":"","type":"bool","internalType":"bool"}],"stateMutability":"view"},{"type":"function","name":"isBannedStickerDesign","inputs":[{"name":"_stickerId","type":"uint256","internalType":"uint256"}],"outputs":[{"name":"","type":"bool","internalType":"bool"}],"stateMutability":"view"},{"type":"function","name":"isCappedStickerDesign","inputs":[{"name":"_stickerId","type":"uint256","internalType":"uint256"}],"outputs":[{"name":"","type":"bool","internalType":"bool"}],"stateMutability":"view"},{"type":"function","name":"isPublisherInGoodStanding","inputs":[{"name":"_publisher","type":"address","internalType":"address"}],"outputs":[{"name":"","type":"bool","internalType":"bool"}],"stateMutability":"view"},{"type":"function","name":"nextStickerDesignId","inputs":[],"outputs":[{"name":"","type":"uint256","internalType":"uint256"}],"stateMutability":"view"},{"type":"function","name":"operator","inputs":[],"outputs":[{"name":"","type":"address","internalType":"address"}],"stateMutability":"view"},{"type":"function","name":"owner","inputs":[],"outputs":[{"name":"","type":"address","internalType":"address"}],"stateMutability":"view"},{"type":"function","name":"paymentMethodContract","inputs":[],"outputs":[{"name":"","type":"address","internalType":"contract IPaymentMethod"}],"stateMutability":"view"},{"type":"function","name":"publishStickerDesign","inputs":[{"name":"newDesign","type":"tuple","internalType":"struct NewStickerDesign","components":[{"name":"payoutAddress","type":"address","internalType":"address"},{"name":"price","type":"uint64","internalType":"uint64"},{"name":"paymentMethodId","type":"uint256","internalType":"uint256"},{"name":"limitCount","type":"uint64","internalType":"uint64"},{"name":"limitTime","type":"uint64","internalType":"uint64"},{"name":"limitToHolders","type":"address","internalType":"address"},{"name":"metadataCID","type":"bytes","internalType":"bytes"},{"name":"imageCID","type":"string","internalType":"string"}]}],"outputs":[{"name":"","type":"uint256","internalType":"uint256"}],"stateMutability":"payable"},{"type":"function","name":"publisherReputationFee","inputs":[],"outputs":[{"name":"","type":"uint256","internalType":"uint256"}],"stateMutability":"view"},{"type":"function","name":"renounceOwnership","inputs":[],"outputs":[],"stateMutability":"nonpayable"},{"type":"function","name":"setAdminFeeRecipient","inputs":[{"name":"_recipient","type":"address","internalType":"address"}],"outputs":[],"stateMutability":"nonpayable"},{"type":"function","name":"setOperator","inputs":[{"name":"_operator","type":"address","internalType":"address"}],"outputs":[],"stateMutability":"nonpayable"},{"type":"function","name":"setPaymentMethodContract","inputs":[{"name":"_payments","type":"address","internalType":"contract IPaymentMethod"}],"outputs":[],"stateMutability":"nonpayable"},{"type":"function","name":"setPublisherReputationFee","inputs":[{"name":"_fee","type":"uint256","internalType":"uint256"}],"outputs":[],"stateMutability":"nonpayable"},{"type":"function","name":"setStickerEndTime","inputs":[{"name":"_stickerId","type":"uint256","internalType":"uint256"},{"name":"_endTime","type":"uint64","internalType":"uint64"}],"outputs":[],"stateMutability":"nonpayable"},{"type":"function","name":"setStickerLimitToHolders","inputs":[{"name":"_stickerId","type":"uint256","internalType":"uint256"},{"name":"_holders","type":"address","internalType":"address"}],"outputs":[],"stateMutability":"nonpayable"},{"type":"function","name":"setStickerPayoutAddress","inputs":[{"name":"_stickerId","type":"uint256","internalType":"uint256"},{"name":"_recipient","type":"address","internalType":"address"}],"outputs":[],"stateMutability":"nonpayable"},{"type":"function","name":"setStickerPrice","inputs":[{"name":"_stickerId","type":"uint256","internalType":"uint256"},{"name":"_paymentMethodId","type":"uint256","internalType":"uint256"},{"name":"_price","type":"uint64","internalType":"uint64"}],"outputs":[],"stateMutability":"nonpayable"},{"type":"function","name":"setStickerPublisher","inputs":[{"name":"_stickerId","type":"uint256","internalType":"uint256"},{"name":"_recipient","type":"address","internalType":"address"}],"outputs":[],"stateMutability":"nonpayable"},{"type":"function","name":"setStickerRegistrationFee","inputs":[{"name":"_fee","type":"uint256","internalType":"uint256"}],"outputs":[],"stateMutability":"nonpayable"},{"type":"function","name":"stickerRegistrationFee","inputs":[],"outputs":[{"name":"","type":"uint256","internalType":"uint256"}],"stateMutability":"view"},{"type":"function","name":"transferAdminFees","inputs":[],"outputs":[],"stateMutability":"nonpayable"},{"type":"function","name":"transferOwnership","inputs":[{"name":"newOwner","type":"address","internalType":"address"}],"outputs":[],"stateMutability":"nonpayable"},{"type":"event","name":"AdminFeeRecipientChanged","inputs":[{"name":"newRecipient","type":"address","indexed":false,"internalType":"address"}],"anonymous":false},{"type":"event","name":"OwnershipTransferred","inputs":[{"name":"previousOwner","type":"address","indexed":true,"internalType":"address"},{"name":"newOwner","type":"address","indexed":true,"internalType":"address"}],"anonymous":false},{"type":"event","name":"PublisherBanned","inputs":[{"name":"publisher","type":"address","indexed":true,"internalType":"address"}],"anonymous":false},{"type":"event","name":"PublisherReputationFeeChanged","inputs":[{"name":"newFee","type":"uint256","indexed":false,"internalType":"uint256"}],"anonymous":false},{"type":"event","name":"PublisherUnbanned","inputs":[{"name":"publisher","type":"address","indexed":true,"internalType":"address"}],"anonymous":false},{"type":"event","name":"StickerCapped","inputs":[{"name":"stickerId","type":"uint256","indexed":true,"internalType":"uint256"}],"anonymous":false},{"type":"event","name":"StickerDesignBanned","inputs":[{"name":"stickerId","type":"uint256","indexed":true,"internalType":"uint256"}],"anonymous":false},{"type":"event","name":"StickerDesignPublished","inputs":[{"name":"stickerId","type":"uint256","indexed":true,"internalType":"uint256"},{"name":"publisher","type":"address","indexed":true,"internalType":"address"},{"name":"payoutAddress","type":"address","indexed":true,"internalType":"address"},{"name":"metadataCID","type":"bytes","indexed":false,"internalType":"bytes"}],"anonymous":false},{"type":"event","name":"StickerDesignUnbanned","inputs":[{"name":"stickerId","type":"uint256","indexed":true,"internalType":"uint256"}],"anonymous":false},{"type":"event","name":"StickerEndTimeChanged","inputs":[{"name":"stickerId","type":"uint256","indexed":true,"internalType":"uint256"},{"name":"endTime","type":"uint256","indexed":false,"internalType":"uint256"}],"anonymous":false},{"type":"event","name":"StickerLimitToHoldersSet","inputs":[{"name":"stickerId","type":"uint256","indexed":true,"internalType":"uint256"},{"name":"limitToHolders","type":"address","indexed":true,"internalType":"address"}],"anonymous":false},{"type":"event","name":"StickerPayoutAddressSet","inputs":[{"name":"stickerId","type":"uint256","indexed":true,"internalType":"uint256"},{"name":"payoutAddress","type":"address","indexed":true,"internalType":"address"}],"anonymous":false},{"type":"event","name":"StickerPriceSet","inputs":[{"name":"stickerId","type":"uint256","indexed":true,"internalType":"uint256"},{"name":"paymentMethodId","type":"uint256","indexed":true,"internalType":"uint256"},{"name":"price","type":"uint256","indexed":false,"internalType":"uint256"}],"anonymous":false},{"type":"event","name":"StickerPublisherChanged","inputs":[{"name":"stickerId","type":"uint256","indexed":true,"internalType":"uint256"},{"name":"from","type":"address","indexed":true,"internalType":"address"},{"name":"to","type":"address","indexed":true,"internalType":"address"}],"anonymous":false},{"type":"event","name":"StickerRegistrationFeeChanged","inputs":[{"name":"newFee","type":"uint256","indexed":false,"internalType":"uint256"}],"anonymous":false},{"type":"error","name":"CannotModifyEndTime","inputs":[]},{"type":"error","name":"InvalidAccount","inputs":[]},{"type":"error","name":"InvalidEndTime","inputs":[]},{"type":"error","name":"InvalidPaymentMethodId","inputs":[{"name":"paymentMethodId","type":"uint256","internalType":"uint256"}]},{"type":"error","name":"InvalidPublishingFee","inputs":[{"name":"requiredFee","type":"uint256","internalType":"uint256"}]},{"type":"error","name":"InvalidRecipient","inputs":[]},{"type":"error","name":"InvalidStickerDesignId","inputs":[{"name":"stickerId","type":"uint256","internalType":"uint256"}]},{"type":"error","name":"OwnableInvalidOwner","inputs":[{"name":"owner","type":"address","internalType":"address"}]},{"type":"error","name":"OwnableUnauthorizedAccount","inputs":[{"name":"account","type":"address","internalType":"address"}]},{"type":"error","name":"PublisherPermissionsIssue","inputs":[]}],"bytecode":{"object":"0x60803461014f57601f611ef638819003918201601f19168301916001600160401b038311848410176101535780849260809460405283398101031261014f5780516001600160a01b038116919082900361014f5760208101516001600160a01b0381169081900361014f576060604083015192015192811561013c575f80546001600160a01b03198116841782556040517f0789757fd5db109b61ef67cd9bdb679571580ed16f507802e8c5bf040f690a7a936020939192909186916001600160a01b0316907f8be0079c531659141344cd1fd0a4f28419497f9722a3daafe3b4186f6b6457e09080a36001600681905580546001600160a01b03199081169290921790556002805490911685179055838152a1600380546001600160a01b031916919091179055600455600555604051611d8e90816101688239f35b631e4fbdf760e01b5f525f60045260245ffd5b5f80fd5b634e487b7160e01b5f52604160045260245ffdfe60806040526004361015610018575b361561001657005b005b5f3560e01c80630663c3a114611474578063161223a0146114495780631ab726d81461142c57806322722baf146113a757806323a53c32146113315780632774bdfe14611281578063300d6bcb146111d55780633110756a1461117657806337441ce814611139578063570ca735146111115780635886cea2146110f45780635a489266146110ba5780635af96f09146110625780635cbf1c2f14610f455780635e2900e014610f095780636019993314610ee657806360bc18a214610ebe57806368ce544914610e245780636de81a8a14610da3578063715018a614610d4c57806380700dcc14610c7b578063886d31d414610c235780638b2e93c814610bb45780638baaf76914610b2c5780638da5cb5b14610b0557806397ddd87314610add578063a7e020db14610aa6578063b3ab15fb14610a63578063c62a19e514610a46578063ce90054214610a17578063d77604ae146108d9578063e547d28c14610330578063ee11d5eb14610308578063f11fea0f146102265763f2fde38b0361000e5734610222576020366003190112610222576101b661150b565b6101be611cfd565b6001600160a01b0316801561020f575f80546001600160a01b03198116831782556001600160a01b0316907f8be0079c531659141344cd1fd0a4f28419497f9722a3daafe3b4186f6b6457e09080a3005b631e4fbdf760e01b5f525f60045260245ffd5b5f80fd5b3461022257610234366116a7565b600354919290916001600160a01b031633036102f9575f9115915b83811061025857005b80610266600192868561192b565b355f5260096020526102878460405f209060ff801983541691151516179055565b83156102c45761029881868561192b565b357f95555a2e0459567236a1f385f12beae39cdaa8158a4da7653232b59ed07dd3405f80a25b0161024f565b6102cf81868561192b565b357f7f0eb656774fc8e266e47e75955b7e477a315e73ec0ae0ae6a2662df82cf593b5f80a26102be565b63be9eb1f960e01b5f5260045ffd5b34610222575f366003190112610222576002546040516001600160a01b039091168152602090f35b6020366003190112610222576004356001600160401b0381116102225780600401610100600319833603011261022257335f52600860205260ff60405f2054166102f957335f52600760205260ff60405f2054161590815f146108d15761039c60045460055490611963565b80341415806108bc575b6108aa5750600654915f93608481016001600160401b036103c682611a94565b16610863575b506103d68361197d565b906103e360248201611a94565b916103f060648301611a94565b6103fc60a4840161197d565b9060c484019861040c8a89611aa8565b95909660e4820161041d908b611aa8565b9690976040519861042d8a6116e2565b338a5260208a019a338c5260408b0193600160a01b6001900316845260608b0192426001600160401b0316845260808c01956001600160401b0316865260a08c019660440135875260c08c01986001600160401b0316895260e08c01976001600160401b031688526101008c0199600160a01b60019003168a5236906104b292611ada565b986101208b01998a5236906104c692611ada565b6101408a019081525f8e8152600a6020526040902099518a546001600160a01b03199081166001600160a01b03928316178c559b5160018c018054909d1690821617909b55915160028a01805492516001600160e01b031990931691909b161760a09190911b67ffffffffffffffff60a01b16179098555160038701805467ffffffffffffffff199081166001600160401b039384161790915591516004880155925160058701805490921690841617815590516105a6921667ffffffffffffffff60401b82549160401b169067ffffffffffffffff60401b1916179055565b516006830180546001600160a01b0319166001600160a01b039290921691909117905551805160078301916001600160401b0382116107dd576105f3826105ed8554611991565b85611b10565b602090601f83116001146107fc5791806106279260089695945f926107f1575b50508160011b915f199060031b1c19161790565b90555b0190518051906001600160401b0382116107dd5761064c826105ed8554611991565b602090601f831160011461077a5761067a92915f918361076f5750508160011b915f199060031b1c19161790565b90555b610753575b6006545f19811461073f576001016006555f80808060018060a01b036002541681903415610735575b3491f11561072a577fb4a52d512212b4da4eaa6882a8b143f94b787c87482fb0bbb84c35046d777817826106ea6020956106e48561197d565b94611aa8565b9290938360405195888752818988015260408701375f6040858701015260018060a01b0316936040813395601f80199101168101030190a4604051908152f35b6040513d5f823e3d90fd5b6108fc91506106ab565b634e487b7160e01b5f52601160045260245ffd5b335f52600760205260405f20600160ff19825416179055610682565b015190508880610613565b90601f19831691845f52815f20925f5b8181106107c557509084600195949392106107ad575b505050811b01905561067d565b01515f1960f88460031b161c191690558780806107a0565b9293602060018192878601518155019501930161078a565b634e487b7160e01b5f52604160045260245ffd5b015190508b80610613565b90601f19831691845f52815f20925f5b81811061084b575091600193918560089897969410610833575b505050811b01905561062a565b01515f1960f88460031b161c191690558a8080610826565b9293602060018192878601518155019501930161080c565b9094506001600160401b0361087782611a94565b1642111561089257506001600160401b03425b1693856103cc565b6001600160401b036108a48192611a94565b1661088a565b6331cd6d1560e11b5f5260045260245ffd5b506003546001600160a01b03163314156103a6565b60055461039c565b3461022257606036600319011261022257600435602435906044356001600160401b0381168091036102225761090f8233611b5f565b156102f9578215158061098a575b610977575f828152600a602090815260409182902060048101869055600301805467ffffffffffffffff19168417905590519182527f8b4fb346485f46ad7391e15a9ff42262e7e856c8abce9efbdd00ba1c365950bd91a3005b826377a7c47960e11b5f5260045260245ffd5b50600154604051621c944160e81b81526004810185905290602090829060249082906001600160a01b03165afa90811561072a575f916109d5575b506001600160a01b03161561091d565b90506020813d602011610a0f575b816109f0602093836116fe565b8101031261022257516001600160a01b038116810361022257846109c5565b3d91506109e3565b34610222576020366003190112610222576004355f526009602052602060ff60405f2054166040519015158152f35b34610222575f366003190112610222576020600654604051908152f35b3461022257602036600319011261022257610a7c61150b565b610a84611cfd565b600380546001600160a01b0319166001600160a01b0392909216919091179055005b3461022257602036600319011261022257610ad9610ac5600435611a4a565b604051918291602083526020830190611551565b0390f35b34610222576020366003190112610222576020610afb600435611bcb565b6040519015158152f35b34610222575f366003190112610222575f546040516001600160a01b039091168152602090f35b3461022257604036600319011261022257600435610b486114f5565b610b528233611b5f565b156102f9575f828152600a60205260408120805460019190910180546001600160a01b0319166001600160a01b0394851690811790915593921691907f80ffe665d8b7ca7d9f3fb0751284f88968945c7a8e2c70f708a50d499ec0501b9080a4005b34610222576020366003190112610222576001600160a01b03610bd561150b565b16805f52600860205260ff60405f2054166102f9575f52600760205260ff60405f2054165f14610c0d5760206005545b604051908152f35b6020610c1e60045460055490611963565b610c05565b3461022257602036600319011261022257600354600435906001600160a01b031633036102f9576020817fda3f32ca85c7216ef37988c4d4d6dddf6058f9bbb1e16d9f33c32817be067fe492600555604051908152a1005b34610222576040366003190112610222576004356024356001600160401b0381169081810361022257610cae8333611b5f565b156102f957428210610d3d57610cc383611bcb565b610d2e577ff5af2a89f3d607af37716fc24fa122b50d29f1f6862c656be284225da2ddd7e591610d25602092855f52600a8452600560405f20019067ffffffffffffffff60401b82549160401b169067ffffffffffffffff60401b1916179055565b604051908152a2005b6303b3180360e21b5f5260045ffd5b6338af65f760e01b5f5260045ffd5b34610222575f36600319011261022257610d64611cfd565b5f80546001600160a01b0319811682556001600160a01b03167f8be0079c531659141344cd1fd0a4f28419497f9722a3daafe3b4186f6b6457e08280a3005b3461022257604036600319011261022257600435610dbf6114f5565b610dc98233611b5f565b156102f9575f828152600a6020526040812060020180546001600160a01b0319166001600160a01b039390931692831790559091907fa29c7d5c5cf8e21a9467fa795bee02ce5f54d6def9c45df6cd8b6cc7a067539e9080a3005b3461022257602036600319011261022257600435610e428133611b5f565b156102f957610e5081611bcb565b610d2e57805f52600a602052610e986001600160401b034216600560405f20019067ffffffffffffffff60401b82549160401b169067ffffffffffffffff60401b1916179055565b7f5e83760177b4ba2463489747abde2cc520fe81548a18181840860c096297e8b75f80a2005b34610222575f366003190112610222576001546040516001600160a01b039091168152602090f35b34610222576020366003190112610222576020610afb610f0461150b565b611d23565b3461022257602036600319011261022257610f2261188b565b50610ad9610f31600435611c15565b604051918291602083526020830190611575565b3461022257610f53366116a7565b600354919290916001600160a01b031633036102f9575f9115915b838110610f7757005b6001906001600160a01b03610f95610f9083888761192b565b61197d565b165f526008602052610fb68460405f209060ff801983541691151516179055565b831561102457818060a01b03610fd0610f9083888761192b565b165f52600760205260405f2060ff198154169055818060a01b03610ff8610f9083888761192b565b167fc62e2b6843cc6aab70cb7a7a049b63794d3545ceed4231d9fa0850e5b39ce4935f80a25b01610f6e565b818060a01b03611038610f9083888761192b565b167f31e0681bea81e4f55cb06fe6016f19755fa4da1c017d02af163083f5011e32de5f80a261101e565b3461022257602036600319011261022257600354600435906001600160a01b031633036102f9576020817f4482ca80472f25d0c77bc0fd46bf4d6cc768480e7ae90e6c9afba405e5d21e0d92600455604051908152a1005b34610222575f366003190112610222575f80808060018060a01b036002541647908282156110eb575bf11561072a57005b506108fc6110e3565b34610222575f366003190112610222576020600554604051908152f35b34610222575f366003190112610222576003546040516001600160a01b039091168152602090f35b34610222576020366003190112610222576001600160a01b0361115a61150b565b165f526008602052602060ff60405f2054166040519015158152f35b34610222576020366003190112610222576004356001600160a01b03811690819003610222576111a4611cfd565b80156111c6576bffffffffffffffffffffffff60a01b60015416176001555f80f35b630da30f6560e31b5f5260045ffd5b34610222576040366003190112610222576004356006548082101561126e5761120060243583611963565b90808211611266575b5061121c6112178383611970565b6118dc565b91805b8281106112345760405180610ad98682611648565b8061125f611243600193611c15565b61124d8584611970565b90611258828961194f565b528661194f565b500161121f565b905082611209565b50633e16308d60e11b5f5260045260245ffd5b346102225760203660031901126102225760605f80806004356112a381611b97565b6112cd575b506001600160401b039060405193845216602083015260018060a01b03166040820152f35b5f818152600a60205260409020600481015460038201546002909201549095506001600160a01b031693506001600160401b03169150826112a8575f908152600a60205260409020600101546001600160a01b031691506001600160401b036112a8565b346102225760203660031901126102225761134a61150b565b611352611cfd565b6001600160a01b031680156111c6576020817f0789757fd5db109b61ef67cd9bdb679571580ed16f507802e8c5bf040f690a7a926bffffffffffffffffffffffff60a01b6002541617600255604051908152a1005b34610222576020366003190112610222576004356001600160401b038111610222576113d7903690600401611521565b906113e1826118dc565b915f5b8181106113f95760405180610ad98682611648565b8061141061140a600193858761192b565b35611c15565b61141a828761194f565b52611425818661194f565b50016113e4565b34610222575f366003190112610222576020600454604051908152f35b34610222576060366003190112610222576020610c0561146761150b565b604435906024359061173a565b34610222576040366003190112610222576004356114906114f5565b61149a8233611b5f565b156102f9575f828152600a6020526040812060060180546001600160a01b0319166001600160a01b039390931692831790559091907fea5b20931e7cd8b6192e68cb577648b7bf4d8f0d6e99b44e03c3863585314ec89080a3005b602435906001600160a01b038216820361022257565b600435906001600160a01b038216820361022257565b9181601f84011215610222578235916001600160401b038311610222576020808501948460051b01011161022257565b805180835260209291819084018484015e5f828201840152601f01601f1916010190565b6116459160018060a01b03825116815260018060a01b03602083015116602082015260018060a01b0360408301511660408201526001600160401b0360608301511660608201526001600160401b03608083015116608082015260a082015160a08201526001600160401b0360c08301511660c08201526001600160401b0360e08301511660e082015260018060a01b0361010083015116610100820152610140611633610120840151610160610120850152610160840190611551565b92015190610140818403910152611551565b90565b602081016020825282518091526040820191602060408360051b8301019401925f915b83831061167a57505050505090565b9091929394602080611698600193603f198682030187528951611575565b9701930193019193929061166b565b604060031982011261022257600435906001600160401b038211610222576116d191600401611521565b909160243580151581036102225790565b61016081019081106001600160401b038211176107dd57604052565b90601f801991011681019081106001600160401b038211176107dd57604052565b6001600160401b0381116107dd57601f01601f191660200190565b9161174482611b97565b1561186b5761175282611bcb565b61186357815f52600a6020526001600160401b03600560405f2001541615159081611840575b50611839575f908152600a60205260409020600601546001600160a01b031690816117a4575b50505f90565b5f91829160405160208101916370a0823160e01b835260018060a01b03166024820152602481526117d66044826116fe565b51915afa3d15611831573d906117eb8261171f565b916117f960405193846116fe565b82523d5f602084013e5b1561182a57602081805181010312610222576020015115611825575f8061179e565b606790565b5061019b90565b606090611803565b5050606690565b9050815f52600a6020526001600160401b03600560405f2001541611155f611778565b505050606590565b50505061019490565b6001600160401b0381116107dd5760051b60200190565b60405190611898826116e2565b6060610140835f81525f60208201525f60408201525f838201525f60808201525f60a08201525f60c08201525f60e08201525f610100820152826101208201520152565b906118e682611874565b6118f360405191826116fe565b8281528092611904601f1991611874565b01905f5b82811061191457505050565b60209061191f61188b565b82828501015201611908565b919081101561193b5760051b0190565b634e487b7160e01b5f52603260045260245ffd5b805182101561193b5760209160051b010190565b9190820180921161073f57565b9190820391821161073f57565b356001600160a01b03811681036102225790565b90600182811c921680156119bf575b60208310146119ab57565b634e487b7160e01b5f52602260045260245ffd5b91607f16916119a0565b5f92918154916119d883611991565b8083529260018116908115611a2d57506001146119f457505050565b5f9081526020812093945091925b838310611a13575060209250010190565b600181602092949394548385870101520191019190611a02565b915050602093945060ff929192191683830152151560051b010190565b611a5381611b97565b15611a7f575f52600a602052611a78611645600860405f2001604051928380926119c9565b03826116fe565b50604051611a8e6020826116fe565b5f815290565b356001600160401b03811681036102225790565b903590601e198136030182121561022257018035906001600160401b0382116102225760200191813603831361022257565b929192611ae68261171f565b91611af460405193846116fe565b829481845281830111610222578281602093845f960137010152565b601f8211611b1d57505050565b5f5260205f20906020601f840160051c83019310611b55575b601f0160051c01905b818110611b4a575050565b5f8155600101611b3f565b9091508190611b36565b611b6881611d23565b9182611b7357505090565b5f908152600a60205260409020600101546001600160a01b03918216911614919050565b8015159081611bbf575b81611baa575090565b90505f52600960205260ff60405f2054161590565b60065481109150611ba1565b805f52600a6020526001600160401b03600560405f20015460401c1615159081611bf3575090565b90505f52600a6020526001600160401b03600560405f20015460401c16421190565b90611c1e61188b565b91611c2881611b97565b611c2f5750565b9091505f52600a60205260405f206008611cf460405192611c4f846116e2565b80546001600160a01b03908116855260018201548116602086015260028201548082166040808801919091526001600160401b0360a092831c81166060890152600385015481166080890152600485015492880192909252600584015480831660c0890152811c90911660e0870152600683015490911661010086015251611cde81611a7881600786016119c9565b610120850152611a7860405180948193016119c9565b61014082015290565b5f546001600160a01b03163303611d1057565b63118cdaa760e01b5f523360045260245ffd5b6001600160a01b03165f8181526008602052604090205460ff16611d53575f52600760205260ff60405f20541690565b505f9056fea2646970667358221220ae729bd2e81fbc3e55afc6fe76eca0364089d9bd529c0e45608bd52ee31a1a7a64736f6c634300081a0033","linkReferences":{}},"methodIdentifiers":{"accountCanSlapSticker(address,uint256,uint256)":"161223a0","adminFeeRecipient()":"ee11d5eb","banPublishers(address[],bool)":"5cbf1c2f","banStickerDesigns(uint256[],bool)":"f11fea0f","capSticker(uint256)":"68ce5449","costToPublish(address)":"8b2e93c8","getStickerDesign(uint256)":"5e2900e0","getStickerDesignImageCID(uint256)":"a7e020db","getStickerDesignPrice(uint256)":"2774bdfe","getStickerDesigns(uint256,uint256)":"300d6bcb","getStickerDesigns(uint256[])":"22722baf","isBannedPublisher(address)":"37441ce8","isBannedStickerDesign(uint256)":"ce900542","isCappedStickerDesign(uint256)":"97ddd873","isPublisherInGoodStanding(address)":"60199933","nextStickerDesignId()":"c62a19e5","operator()":"570ca735","owner()":"8da5cb5b","paymentMethodContract()":"60bc18a2","publishStickerDesign((address,uint64,uint256,uint64,uint64,address,bytes,string))":"e547d28c","publisherReputationFee()":"1ab726d8","renounceOwnership()":"715018a6","setAdminFeeRecipient(address)":"23a53c32","setOperator(address)":"b3ab15fb","setPaymentMethodContract(address)":"3110756a","setPublisherReputationFee(uint256)":"5af96f09","setStickerEndTime(uint256,uint64)":"80700dcc","setStickerLimitToHolders(uint256,address)":"0663c3a1","setStickerPayoutAddress(uint256,address)":"6de81a8a","setStickerPrice(uint256,uint256,uint64)":"d77604ae","setStickerPublisher(uint256,address)":"8baaf769","setStickerRegistrationFee(uint256)":"886d31d4","stickerRegistrationFee()":"5886cea2","transferAdminFees()":"5a489266","transferOwnership(address)":"f2fde38b"},"id":48}