{"abi":[{"type":"constructor","inputs":[{"name":"_initialAdmin","type":"address","internalType":"address"},{"name":"_initialSlapFee","type":"uint256","internalType":"uint256"},{"name":"_stickerDesignsAddress","type":"address","internalType":"address payable"},{"name":"_paymentMethodAddress","type":"address","internalType":"address payable"}],"stateMutability":"nonpayable"},{"type":"function","name":"approve","inputs":[{"name":"to","type":"address","internalType":"address"},{"name":"tokenId","type":"uint256","internalType":"uint256"}],"outputs":[],"stateMutability":"payable"},{"type":"function","name":"balanceOf","inputs":[{"name":"owner","type":"address","internalType":"address"}],"outputs":[{"name":"","type":"uint256","internalType":"uint256"}],"stateMutability":"view"},{"type":"function","name":"banPlayers","inputs":[{"name":"_players","type":"address[]","internalType":"address[]"},{"name":"undoBan","type":"bool","internalType":"bool"}],"outputs":[],"stateMutability":"nonpayable"},{"type":"function","name":"burn","inputs":[{"name":"_slapIds","type":"uint256[]","internalType":"uint256[]"}],"outputs":[],"stateMutability":"nonpayable"},{"type":"function","name":"checkSlaps","inputs":[{"name":"_player","type":"address","internalType":"address"},{"name":"_newSlaps","type":"tuple[]","internalType":"struct NewSlap[]","components":[{"name":"placeId","type":"uint256","internalType":"uint256"},{"name":"stickerId","type":"uint256","internalType":"uint256"},{"name":"size","type":"uint64","internalType":"uint64"}]},{"name":"_objectives","type":"uint256[]","internalType":"uint256[]"}],"outputs":[{"name":"","type":"tuple[]","internalType":"struct SlapIssue[]","components":[{"name":"issueCode","type":"uint8","internalType":"enum IssueType"},{"name":"recordId","type":"uint256","internalType":"uint256"},{"name":"value","type":"uint256","internalType":"uint256"}]}],"stateMutability":"view"},{"type":"function","name":"costOfSlaps","inputs":[{"name":"_player","type":"address","internalType":"address"},{"name":"_newSlaps","type":"tuple[]","internalType":"struct NewSlap[]","components":[{"name":"placeId","type":"uint256","internalType":"uint256"},{"name":"stickerId","type":"uint256","internalType":"uint256"},{"name":"size","type":"uint64","internalType":"uint64"}]},{"name":"_objectives","type":"uint256[]","internalType":"uint256[]"}],"outputs":[{"name":"","type":"tuple[]","internalType":"struct PaymentMethodTotal[]","components":[{"name":"paymentMethodId","type":"uint256","internalType":"uint256"},{"name":"total","type":"uint256","internalType":"uint256"}]}],"stateMutability":"view"},{"type":"function","name":"getApproved","inputs":[{"name":"tokenId","type":"uint256","internalType":"uint256"}],"outputs":[{"name":"","type":"address","internalType":"address"}],"stateMutability":"view"},{"type":"function","name":"getPlace","inputs":[{"name":"_placeId","type":"uint256","internalType":"uint256"}],"outputs":[{"name":"","type":"tuple","internalType":"struct Place","components":[{"name":"placeId","type":"uint256","internalType":"uint256"},{"name":"lng","type":"uint256","internalType":"uint256"},{"name":"lngDecimal","type":"uint256","internalType":"uint256"},{"name":"lat","type":"uint256","internalType":"uint256"},{"name":"latDecimal","type":"uint256","internalType":"uint256"},{"name":"stickerId","type":"uint256","internalType":"uint256"},{"name":"slapId","type":"uint256","internalType":"uint256"},{"name":"slapCount","type":"uint256","internalType":"uint256"}]}],"stateMutability":"view"},{"type":"function","name":"getPlaceSlaps","inputs":[{"name":"_placeId","type":"uint256","internalType":"uint256"},{"name":"_offset","type":"uint256","internalType":"uint256"},{"name":"_limit","type":"uint256","internalType":"uint256"}],"outputs":[{"name":"total","type":"uint256","internalType":"uint256"},{"name":"","type":"tuple[]","internalType":"struct Slap[]","components":[{"name":"slapId","type":"uint256","internalType":"uint256"},{"name":"stickerId","type":"uint256","internalType":"uint256"},{"name":"placeId","type":"uint256","internalType":"uint256"},{"name":"height","type":"uint256","internalType":"uint256"},{"name":"slappedAt","type":"uint256","internalType":"uint256"},{"name":"size","type":"uint64","internalType":"uint64"},{"name":"player","type":"address","internalType":"address"},{"name":"objectiveIds","type":"uint256[]","internalType":"uint256[]"}]}],"stateMutability":"view"},{"type":"function","name":"getPlaces","inputs":[{"name":"_placeIds","type":"uint256[]","internalType":"uint256[]"}],"outputs":[{"name":"","type":"tuple[]","internalType":"struct Place[]","components":[{"name":"placeId","type":"uint256","internalType":"uint256"},{"name":"lng","type":"uint256","internalType":"uint256"},{"name":"lngDecimal","type":"uint256","internalType":"uint256"},{"name":"lat","type":"uint256","internalType":"uint256"},{"name":"latDecimal","type":"uint256","internalType":"uint256"},{"name":"stickerId","type":"uint256","internalType":"uint256"},{"name":"slapId","type":"uint256","internalType":"uint256"},{"name":"slapCount","type":"uint256","internalType":"uint256"}]}],"stateMutability":"view"},{"type":"function","name":"getSlap","inputs":[{"name":"_slapId","type":"uint256","internalType":"uint256"}],"outputs":[{"name":"","type":"tuple","internalType":"struct Slap","components":[{"name":"slapId","type":"uint256","internalType":"uint256"},{"name":"stickerId","type":"uint256","internalType":"uint256"},{"name":"placeId","type":"uint256","internalType":"uint256"},{"name":"height","type":"uint256","internalType":"uint256"},{"name":"slappedAt","type":"uint256","internalType":"uint256"},{"name":"size","type":"uint64","internalType":"uint64"},{"name":"player","type":"address","internalType":"address"},{"name":"objectiveIds","type":"uint256[]","internalType":"uint256[]"}]}],"stateMutability":"view"},{"type":"function","name":"getSlapStickerId","inputs":[{"name":"_slapId","type":"uint256","internalType":"uint256"}],"outputs":[{"name":"","type":"uint256","internalType":"uint256"}],"stateMutability":"view"},{"type":"function","name":"getSlaps","inputs":[{"name":"_slapIds","type":"uint256[]","internalType":"uint256[]"}],"outputs":[{"name":"","type":"tuple[]","internalType":"struct Slap[]","components":[{"name":"slapId","type":"uint256","internalType":"uint256"},{"name":"stickerId","type":"uint256","internalType":"uint256"},{"name":"placeId","type":"uint256","internalType":"uint256"},{"name":"height","type":"uint256","internalType":"uint256"},{"name":"slappedAt","type":"uint256","internalType":"uint256"},{"name":"size","type":"uint64","internalType":"uint64"},{"name":"player","type":"address","internalType":"address"},{"name":"objectiveIds","type":"uint256[]","internalType":"uint256[]"}]}],"stateMutability":"view"},{"type":"function","name":"getSlaps","inputs":[{"name":"_start","type":"uint256","internalType":"uint256"},{"name":"_count","type":"uint256","internalType":"uint256"}],"outputs":[{"name":"","type":"tuple[]","internalType":"struct Slap[]","components":[{"name":"slapId","type":"uint256","internalType":"uint256"},{"name":"stickerId","type":"uint256","internalType":"uint256"},{"name":"placeId","type":"uint256","internalType":"uint256"},{"name":"height","type":"uint256","internalType":"uint256"},{"name":"slappedAt","type":"uint256","internalType":"uint256"},{"name":"size","type":"uint64","internalType":"uint64"},{"name":"player","type":"address","internalType":"address"},{"name":"objectiveIds","type":"uint256[]","internalType":"uint256[]"}]}],"stateMutability":"view"},{"type":"function","name":"initiatedPlayers","inputs":[{"name":"","type":"address","internalType":"address"}],"outputs":[{"name":"","type":"bool","internalType":"bool"}],"stateMutability":"view"},{"type":"function","name":"isApprovedForAll","inputs":[{"name":"owner","type":"address","internalType":"address"},{"name":"operator","type":"address","internalType":"address"}],"outputs":[{"name":"","type":"bool","internalType":"bool"}],"stateMutability":"view"},{"type":"function","name":"isBanned","inputs":[{"name":"","type":"address","internalType":"address"}],"outputs":[{"name":"","type":"bool","internalType":"bool"}],"stateMutability":"view"},{"type":"function","name":"lockMetadataRendererContract","inputs":[],"outputs":[],"stateMutability":"nonpayable"},{"type":"function","name":"lockObjectivePayoutMethodContract","inputs":[],"outputs":[],"stateMutability":"nonpayable"},{"type":"function","name":"lockPaymentMethodContract","inputs":[],"outputs":[],"stateMutability":"nonpayable"},{"type":"function","name":"lockPublisherPayoutMethodContract","inputs":[],"outputs":[],"stateMutability":"nonpayable"},{"type":"function","name":"lockStickerDesignsContract","inputs":[],"outputs":[],"stateMutability":"nonpayable"},{"type":"function","name":"lockStickerObjectivesContract","inputs":[],"outputs":[],"stateMutability":"nonpayable"},{"type":"function","name":"metadataRenderer","inputs":[],"outputs":[{"name":"","type":"address","internalType":"contract IMetadataRenderer"}],"stateMutability":"view"},{"type":"function","name":"metadataRendererIsLocked","inputs":[],"outputs":[{"name":"","type":"bool","internalType":"bool"}],"stateMutability":"view"},{"type":"function","name":"name","inputs":[],"outputs":[{"name":"","type":"string","internalType":"string"}],"stateMutability":"view"},{"type":"function","name":"nextSlapId","inputs":[],"outputs":[{"name":"","type":"uint256","internalType":"uint256"}],"stateMutability":"view"},{"type":"function","name":"objectivePayoutMethod","inputs":[],"outputs":[{"name":"","type":"address","internalType":"contract IPayoutMethod"}],"stateMutability":"view"},{"type":"function","name":"objectivePayoutMethodIsLocked","inputs":[],"outputs":[{"name":"","type":"bool","internalType":"bool"}],"stateMutability":"view"},{"type":"function","name":"operator","inputs":[],"outputs":[{"name":"","type":"address","internalType":"address"}],"stateMutability":"view"},{"type":"function","name":"owner","inputs":[],"outputs":[{"name":"","type":"address","internalType":"address"}],"stateMutability":"view"},{"type":"function","name":"ownerOf","inputs":[{"name":"tokenId","type":"uint256","internalType":"uint256"}],"outputs":[{"name":"","type":"address","internalType":"address"}],"stateMutability":"view"},{"type":"function","name":"paymentMethodContract","inputs":[],"outputs":[{"name":"","type":"address","internalType":"contract IPaymentMethod"}],"stateMutability":"view"},{"type":"function","name":"paymentMethodContractIsLocked","inputs":[],"outputs":[{"name":"","type":"bool","internalType":"bool"}],"stateMutability":"view"},{"type":"function","name":"playerReputationFee","inputs":[],"outputs":[{"name":"","type":"uint256","internalType":"uint256"}],"stateMutability":"view"},{"type":"function","name":"publisherPayoutMethod","inputs":[],"outputs":[{"name":"","type":"address","internalType":"contract IPayoutMethod"}],"stateMutability":"view"},{"type":"function","name":"publisherPayoutMethodIsLocked","inputs":[],"outputs":[{"name":"","type":"bool","internalType":"bool"}],"stateMutability":"view"},{"type":"function","name":"renounceOwnership","inputs":[],"outputs":[],"stateMutability":"nonpayable"},{"type":"function","name":"safeTransferFrom","inputs":[{"name":"from","type":"address","internalType":"address"},{"name":"to","type":"address","internalType":"address"},{"name":"tokenId","type":"uint256","internalType":"uint256"}],"outputs":[],"stateMutability":"payable"},{"type":"function","name":"safeTransferFrom","inputs":[{"name":"from","type":"address","internalType":"address"},{"name":"to","type":"address","internalType":"address"},{"name":"tokenId","type":"uint256","internalType":"uint256"},{"name":"_data","type":"bytes","internalType":"bytes"}],"outputs":[],"stateMutability":"payable"},{"type":"function","name":"setApprovalForAll","inputs":[{"name":"operator","type":"address","internalType":"address"},{"name":"approved","type":"bool","internalType":"bool"}],"outputs":[],"stateMutability":"nonpayable"},{"type":"function","name":"setMetadataRendererContract","inputs":[{"name":"_newMetadataRendererAddress","type":"address","internalType":"address"}],"outputs":[],"stateMutability":"nonpayable"},{"type":"function","name":"setObjectivePayoutMethodContract","inputs":[{"name":"_newObjectivePayoutMethodAddress","type":"address","internalType":"address payable"}],"outputs":[],"stateMutability":"nonpayable"},{"type":"function","name":"setOperator","inputs":[{"name":"_newOperator","type":"address","internalType":"address"}],"outputs":[],"stateMutability":"nonpayable"},{"type":"function","name":"setPaymentMethodContract","inputs":[{"name":"_newPaymentMethodAddress","type":"address","internalType":"address payable"}],"outputs":[],"stateMutability":"nonpayable"},{"type":"function","name":"setPlayerReputationFee","inputs":[{"name":"_newPlayerReputationFee","type":"uint256","internalType":"uint256"}],"outputs":[],"stateMutability":"nonpayable"},{"type":"function","name":"setPublisherPayoutMethodContract","inputs":[{"name":"_newPublisherPayoutMethodAddress","type":"address","internalType":"address payable"}],"outputs":[],"stateMutability":"nonpayable"},{"type":"function","name":"setSlapFee","inputs":[{"name":"_newSlapFee","type":"uint256","internalType":"uint256"}],"outputs":[],"stateMutability":"nonpayable"},{"type":"function","name":"setStickerDesignsContract","inputs":[{"name":"_newStickerDesignsAddress","type":"address","internalType":"address payable"}],"outputs":[],"stateMutability":"nonpayable"},{"type":"function","name":"setStickerObjectivesContract","inputs":[{"name":"_newStickerObjectivesAddress","type":"address","internalType":"address payable"}],"outputs":[],"stateMutability":"nonpayable"},{"type":"function","name":"slap","inputs":[{"name":"_newSlaps","type":"tuple[]","internalType":"struct NewSlap[]","components":[{"name":"placeId","type":"uint256","internalType":"uint256"},{"name":"stickerId","type":"uint256","internalType":"uint256"},{"name":"size","type":"uint64","internalType":"uint64"}]},{"name":"_objectives","type":"uint256[]","internalType":"uint256[]"}],"outputs":[{"name":"slapIds","type":"uint256[]","internalType":"uint256[]"},{"name":"slapStatuses","type":"uint256[]","internalType":"uint256[]"}],"stateMutability":"payable"},{"type":"function","name":"slapFee","inputs":[],"outputs":[{"name":"","type":"uint256","internalType":"uint256"}],"stateMutability":"view"},{"type":"function","name":"slapFeeForSize","inputs":[{"name":"_size","type":"uint256","internalType":"uint256"}],"outputs":[{"name":"","type":"uint256","internalType":"uint256"}],"stateMutability":"view"},{"type":"function","name":"stickerDesignsContract","inputs":[],"outputs":[{"name":"","type":"address","internalType":"contract StickerDesigns"}],"stateMutability":"view"},{"type":"function","name":"stickerDesignsContractIsLocked","inputs":[],"outputs":[{"name":"","type":"bool","internalType":"bool"}],"stateMutability":"view"},{"type":"function","name":"stickerObjectivesContract","inputs":[],"outputs":[{"name":"","type":"address","internalType":"contract StickerObjectives"}],"stateMutability":"view"},{"type":"function","name":"stickerObjectivesContractIsLocked","inputs":[],"outputs":[{"name":"","type":"bool","internalType":"bool"}],"stateMutability":"view"},{"type":"function","name":"supportsInterface","inputs":[{"name":"interfaceId","type":"bytes4","internalType":"bytes4"}],"outputs":[{"name":"","type":"bool","internalType":"bool"}],"stateMutability":"view"},{"type":"function","name":"symbol","inputs":[],"outputs":[{"name":"","type":"string","internalType":"string"}],"stateMutability":"view"},{"type":"function","name":"tokenURI","inputs":[{"name":"tokenId","type":"uint256","internalType":"uint256"}],"outputs":[{"name":"","type":"string","internalType":"string"}],"stateMutability":"view"},{"type":"function","name":"totalSupply","inputs":[],"outputs":[{"name":"result","type":"uint256","internalType":"uint256"}],"stateMutability":"view"},{"type":"function","name":"transferFrom","inputs":[{"name":"from","type":"address","internalType":"address"},{"name":"to","type":"address","internalType":"address"},{"name":"tokenId","type":"uint256","internalType":"uint256"}],"outputs":[],"stateMutability":"payable"},{"type":"function","name":"transferOwnership","inputs":[{"name":"newOwner","type":"address","internalType":"address"}],"outputs":[],"stateMutability":"nonpayable"},{"type":"event","name":"Approval","inputs":[{"name":"owner","type":"address","indexed":true,"internalType":"address"},{"name":"approved","type":"address","indexed":true,"internalType":"address"},{"name":"tokenId","type":"uint256","indexed":true,"internalType":"uint256"}],"anonymous":false},{"type":"event","name":"ApprovalForAll","inputs":[{"name":"owner","type":"address","indexed":true,"internalType":"address"},{"name":"operator","type":"address","indexed":true,"internalType":"address"},{"name":"approved","type":"bool","indexed":false,"internalType":"bool"}],"anonymous":false},{"type":"event","name":"ConsecutiveTransfer","inputs":[{"name":"fromTokenId","type":"uint256","indexed":true,"internalType":"uint256"},{"name":"toTokenId","type":"uint256","indexed":false,"internalType":"uint256"},{"name":"from","type":"address","indexed":true,"internalType":"address"},{"name":"to","type":"address","indexed":true,"internalType":"address"}],"anonymous":false},{"type":"event","name":"OwnershipTransferred","inputs":[{"name":"previousOwner","type":"address","indexed":true,"internalType":"address"},{"name":"newOwner","type":"address","indexed":true,"internalType":"address"}],"anonymous":false},{"type":"event","name":"PlayerBanned","inputs":[{"name":"player","type":"address","indexed":true,"internalType":"address"}],"anonymous":false},{"type":"event","name":"PlayerReputationFeeChanged","inputs":[{"name":"newFee","type":"uint256","indexed":false,"internalType":"uint256"}],"anonymous":false},{"type":"event","name":"PlayerUnbanned","inputs":[{"name":"player","type":"address","indexed":true,"internalType":"address"}],"anonymous":false},{"type":"event","name":"SlapFeeChanged","inputs":[{"name":"newFee","type":"uint256","indexed":false,"internalType":"uint256"}],"anonymous":false},{"type":"event","name":"SlapInObjective","inputs":[{"name":"objectiveId","type":"uint256","indexed":true,"internalType":"uint256"},{"name":"slapId","type":"uint256","indexed":true,"internalType":"uint256"}],"anonymous":false},{"type":"event","name":"StickerSlapped","inputs":[{"name":"placeId","type":"uint256","indexed":true,"internalType":"uint256"},{"name":"stickerId","type":"uint256","indexed":true,"internalType":"uint256"},{"name":"player","type":"address","indexed":true,"internalType":"address"},{"name":"slapId","type":"uint256","indexed":false,"internalType":"uint256"},{"name":"size","type":"uint64","indexed":false,"internalType":"uint64"}],"anonymous":false},{"type":"event","name":"Transfer","inputs":[{"name":"from","type":"address","indexed":true,"internalType":"address"},{"name":"to","type":"address","indexed":true,"internalType":"address"},{"name":"tokenId","type":"uint256","indexed":true,"internalType":"uint256"}],"anonymous":false},{"type":"error","name":"ApprovalCallerNotOwnerNorApproved","inputs":[]},{"type":"error","name":"ApprovalQueryForNonexistentToken","inputs":[]},{"type":"error","name":"BalanceQueryForZeroAddress","inputs":[]},{"type":"error","name":"FeatureIsLocked","inputs":[]},{"type":"error","name":"InsufficientFunds","inputs":[{"name":"paymentMethodId","type":"uint256","internalType":"uint256"}]},{"type":"error","name":"InvalidAddress","inputs":[]},{"type":"error","name":"InvalidPlaceId","inputs":[{"name":"placeId","type":"uint256","internalType":"uint256"}]},{"type":"error","name":"InvalidStart","inputs":[]},{"type":"error","name":"MintERC2309QuantityExceedsLimit","inputs":[]},{"type":"error","name":"MintToZeroAddress","inputs":[]},{"type":"error","name":"MintZeroQuantity","inputs":[]},{"type":"error","name":"NotCompatibleWithSpotMints","inputs":[]},{"type":"error","name":"OwnableInvalidOwner","inputs":[{"name":"owner","type":"address","internalType":"address"}]},{"type":"error","name":"OwnableUnauthorizedAccount","inputs":[{"name":"account","type":"address","internalType":"address"}]},{"type":"error","name":"OwnerQueryForNonexistentToken","inputs":[]},{"type":"error","name":"OwnershipNotInitializedForExtraData","inputs":[]},{"type":"error","name":"PermissionDenied","inputs":[]},{"type":"error","name":"PlayerIsBanned","inputs":[]},{"type":"error","name":"ReentrancyGuardReentrantCall","inputs":[]},{"type":"error","name":"SequentialMintExceedsLimit","inputs":[]},{"type":"error","name":"SequentialUpToTooSmall","inputs":[]},{"type":"error","name":"SpotMintTokenIdTooSmall","inputs":[]},{"type":"error","name":"TokenAlreadyExists","inputs":[]},{"type":"error","name":"TooManyObjectives","inputs":[]},{"type":"error","name":"TransferCallerNotOwnerNorApproved","inputs":[]},{"type":"error","name":"TransferFromIncorrectOwner","inputs":[]},{"type":"error","name":"TransferToNonERC721ReceiverImplementer","inputs":[]},{"type":"error","name":"TransferToZeroAddress","inputs":[]},{"type":"error","name":"URIQueryForNonexistentToken","inputs":[]}],"bytecode":{"object":"0x60806040523461019857614bbb6080813803918261001c816101b0565b938492833981010312610198578051610034816101da565b602082015191606060408201519161004b836101da565b0151610056816101da565b61006060406101b0565b91600c83526b29ba34b1b5b2b921b430b4b760a11b602084015261008460406101b0565b60048152630534c41560e41b6020820152906001600160a01b03851680156101855761017696610102610132946100fd61015498610110955f548160018060a01b03198216175f5560018060a01b03167f8be0079c531659141344cd1fd0a4f28419497f9722a3daafe3b4186f6b6457e05f80a3610272565b610357565b61010b60018055565b601055565b600b80546001600160a01b0319166001600160a01b0392909216919091179055565b600a80546001600160a01b0319166001600160a01b0392909216919091179055565b601880546001600160a01b0319166001600160a01b0392909216919091179055565b60405161478a90816104318239f35b631e4fbdf760e01b5f525f60045260245ffd5b5f80fd5b634e487b7160e01b5f52604160045260245ffd5b6040519190601f01601f191682016001600160401b038111838210176101d557604052565b61019c565b6001600160a01b0381160361019857565b90600182811c92168015610219575b602083101461020557565b634e487b7160e01b5f52602260045260245ffd5b91607f16916101fa565b601f821161023057505050565b5f5260205f20906020601f840160051c83019310610268575b601f0160051c01905b81811061025d575050565b5f8155600101610252565b9091508190610249565b80519091906001600160401b0381116101d55761029b816102946003546101eb565b6003610223565b602092601f82116001146102db576102cb929382915f926102d0575b50508160011b915f199060031b1c19161790565b600355565b015190505f806102b7565b60035f52601f198216937fc2575a0e9e593c00f959f8c92f12db2869c3395a3b0502d05e2516446f71f85b915f5b86811061033f5750836001959610610327575b505050811b01600355565b01515f1960f88460031b161c191690555f808061031c565b91926020600181928685015181550194019201610309565b80519091906001600160401b0381116101d557610380816103796004546101eb565b6004610223565b602092601f82116001146103b4576103af929382915f926102d05750508160011b915f199060031b1c19161790565b600455565b60045f52601f198216937f8a35acfbc15ff81a39ae7d344fd709f28e8600b4aa8c65c6b64bfe7fe36bd19b915f5b8681106104185750836001959610610400575b505050811b01600455565b01515f1960f88460031b161c191690555f80806103f5565b919260206001819286850151815501940192016103e256fe60806040526004361015610011575f80fd5b5f3560e01c806301ffc9a714610404578063023a6895146103ff57806304c3a2e5146103fa57806306fdde03146103f5578063081812fc146103f0578063082d67a9146103eb578063095ea7b3146103e65780630d4d7527146103e15780630f4fe773146103dc57806318160ddd146103d7578063197c3555146103d257806323b872dd146103cd57806327102dfa146103c85780633110756a146103c357806342842e0e146103be5780634ad8a97b146103b957806354e052bc146103b4578063570ca735146103af5780635cedc079146103aa57806360900ece146103a557806360bc18a2146103a05780636352211e1461039b57806364a72915146103965780636c5c3aba146103915780636d7480a71461038c57806370319970146103875780637063df241461038257806370a082311461037d578063715018a614610378578063722f7fc714610373578063727b22611461036e57806373ea2b861461036957806374eeb2801461036457806376b0af191461035f5780637d6f6aa01461035a57806380d333d81461035557806380e3963414610350578063810400871461034b578063879331d5146103465780638a8f3536146103415780638da5cb5b1461033c57806395d89b411461033757806397f735d514610332578063990f9de41461032d578063a22cb46514610328578063a2e655f214610323578063b2870e2a1461031e578063b3ab15fb14610319578063b4ace3bf14610314578063b80f55c91461030f578063b88d4fde1461030a578063bb4248d114610305578063bb77b16614610300578063c87b56dd146102fb578063c8d067bb146102f6578063cdf9955c146102f1578063e220c54a146102ec578063e985e9c5146102e7578063eb34a4cb146102e2578063ed82107f146102dd578063ee3d7348146102d8578063f2fde38b146102d35763f8e4013c146102ce575f80fd5b612905565b61287c565b61285e565b612822565b6127f5565b612791565b6126e8565b6126bb565b612663565b6125c6565b6125a1565b612584565b6124fa565b61227c565b612228565b6121d8565b6121a2565b612111565b612082565b61202e565b611fee565b611f39565b611f12565b611ebe565b611e96565b611d66565b611d2f565b611cdb565b611cb6565b611231565b6111a5565b611166565b61113e565b611119565b6110c2565b611068565b611040565b611018565b610feb565b610fbe565b610f99565b610f6a565b610f42565b610e7f565b610dd1565b610d1f565b610cfa565b610cdd565b610cb9565b610c65565b610c38565b610c24565b610a2a565b6109a7565b610982565b610917565b6106f1565b61067f565b610630565b61053d565b6104c5565b610497565b61041f565b6001600160e01b031981160361041b57565b5f80fd5b3461041b57602036600319011261041b57602060043561043e81610409565b63ffffffff60e01b166301ffc9a760e01b811490811561047c575b811561046b575b506040519015158152f35b635b5e139f60e01b1490505f610460565b6380ac58cd60e01b81149150610459565b5f91031261041b57565b3461041b575f36600319011261041b576020601154604051908152f35b6001600160a01b0381160361041b57565b3461041b57602036600319011261041b576004356104e2816104b4565b60018060a01b03165f526016602052602060ff60405f2054166040519015158152f35b805180835260209291819084018484015e5f828201840152601f01601f1916010190565b90602061053a928181520190610505565b90565b3461041b575f36600319011261041b576040515f6003548060011c9060018116908115610626575b6020831082146106125782855260208501919081156105f957506001146105a7575b6105a38461059781860382612481565b60405191829182610529565b0390f35b60035f9081529250907fc2575a0e9e593c00f959f8c92f12db2869c3395a3b0502d05e2516446f71f85b5b8184106105e55750500161059782610587565b8054848401526020909301926001016105d2565b60ff191682525090151560051b01905061059782610587565b634e487b7160e01b5f52602260045260245ffd5b91607f1691610565565b3461041b57602036600319011261041b5760043561064d81613e88565b15610670575f526007602052602060018060a01b0360405f205416604051908152f35b6333d1c03960e21b5f5260045ffd5b3461041b57602036600319011261041b5760043561069c816104b4565b6106a4613f1e565b600c549060ff8260a01c166106e2576001600160a01b03169081156106d3576001600160a01b03191617600c55005b63e6c4247b60e01b5f5260045ffd5b634558e50f60e11b5f5260045ffd5b604036600319011261041b57600435610709816104b4565b602435906001600160a01b0361071e83614171565b169081330361078d575b61075d8161073e855f52600760205260405f2090565b80546001600160a01b0319166001600160a01b03909216919091179055565b6001600160a01b0316907f8c5be1e5ebec7d5bd14f71427d1e84f3dd0314c0f7b2291e5b200ac8c7c3b9255f80a4005b5f82815260086020908152604080832033845290915290205460ff1661072857613ed4565b9181601f8401121561041b578235916001600160401b03831161041b576020808501948460051b01011161041b57565b602060031982011261041b57600435906001600160401b03821161041b5761080c916004016107b2565b9091565b90602080835192838152019201905f5b81811061082d5750505090565b8251845260209384019390920191600101610820565b9061010060e061053a9380518452602081015160208501526040810151604085015260608101516060850152608081015160808501526001600160401b0360a08201511660a085015260018060a01b0360c08201511660c08501520151918160e08201520190610810565b9080602083519182815201916020808360051b8301019401925f915b8383106108d957505050505090565b90919293946020806108f7600193601f198682030187528951610843565b970193019301919392906108ca565b90602061053a9281815201906108ae565b3461041b57610925366107e2565b9061092f826129b9565b915f5b81811061094f57604051602080825281906105a3908201876108ae565b806109666109606001938587612a1c565b35613ff0565b6109708287612a3e565b5261097b8186612a3e565b5001610932565b3461041b575f36600319011261041b57602060ff600b5460a01c166040519015158152f35b3461041b575f36600319011261041b5760015460025460405191035f19018152602090f35b60e08091805184526020810151602085015260408101516040850152606081015160608501526080810151608085015260a081015160a085015260c081015160c08501520151910152565b61010081019291610a2891906109cc565b565b3461041b57602036600319011261041b57600435610a46612a52565b506040516380d660bd60e01b8152600481018290529060a08260248173__$3064ee7f6debc1f63b1d53cb6cfb6ea650$__5af48015610bf3575f905f935f925f915f93610bb8575b5015610ba4575f915f91610aaa865f52601460205260405f2090565b549485610af0575b6105a397610abe6124a2565b978852602088015260408701526060860152608085015260a084015260c083015260e082015260405191829182610a17565b935093610b19816001610b0b895f52601460205260405f2090565b01905f5260205260405f2090565b545b80151580610b8a575b15610b645750610b3390612add565b9384610b45575f935b93949094610b1b565b610b5d856001610b0b895f52601460205260405f2090565b5493610b3c565b936105a39795919585610b79575b9750610ab2565b9350610b8485613e0c565b93610b72565b50610b9d815f52601260205260405f2090565b5415610b24565b63ded646bd60e01b5f52600484905260245ffd5b9350505050610be091925060a03d60a011610bec575b610bd88183612481565b810190612a8e565b9294939192915f610a8e565b503d610bce565b612abe565b606090600319011261041b57600435610c10816104b4565b90602435610c1d816104b4565b9060443590565b610c36610c3036610bf8565b91612ae9565b005b3461041b575f36600319011261041b57610c50613f1e565b600b805460ff60a01b1916600160a01b179055005b3461041b57602036600319011261041b57600435610c82816104b4565b610c8a613f1e565b600a549060ff8260a01c166106e2576001600160a01b03169081156106d3576001600160a01b03191617600a55005b610c36610cc536610bf8565b9060405192610cd5602085612481565b5f8452613d69565b3461041b575f36600319011261041b576020600154604051908152f35b3461041b575f36600319011261041b57602060ff600a5460a01c166040519015158152f35b3461041b575f36600319011261041b576018546040516001600160a01b039091168152602090f35b9181601f8401121561041b578235916001600160401b03831161041b576020808501946060850201011161041b57565b90606060031983011261041b57600435610d90816104b4565b916024356001600160401b03811161041b5781610daf91600401610d47565b92909291604435906001600160401b03821161041b5761080c916004016107b2565b3461041b57610deb610de236610d77565b93929092612ea8565b6040518091602082016020835281518091526020604084019201905f5b818110610e16575050500390f35b8251805185526020908101518186015286955060409094019390920191600101610e08565b60206040818301928281528451809452019201905f5b818110610e5e5750505090565b909192602061010082610e7460019488516109cc565b019401929101610e51565b3461041b57610e8d366107e2565b90610e978261346d565b915f5b818110610eaf57604051806105a38682610e3b565b80610100610ec1610ee1938587612a1c565b60405163197c355560e01b81529035600482015292839081906024820190565b0381305afa8015610bf3576001925f91610f13575b50610f018287612a3e565b52610f0c8186612a3e565b5001610e9a565b610f3591506101003d8111610f3b575b610f2d8183612481565b8101906134bc565b5f610ef6565b503d610f23565b3461041b575f36600319011261041b57600a546040516001600160a01b039091168152602090f35b3461041b57602036600319011261041b5760206001600160a01b03610f90600435614171565b16604051908152f35b3461041b575f36600319011261041b57602060ff600c5460a01c166040519015158152f35b3461041b575f36600319011261041b57610fd6613f1e565b600a805460ff60a01b1916600160a01b179055005b3461041b575f36600319011261041b57611003613f1e565b600d805460ff60a01b1916600160a01b179055005b3461041b575f36600319011261041b57600f546040516001600160a01b039091168152602090f35b3461041b575f36600319011261041b57600b546040516001600160a01b039091168152602090f35b3461041b57602036600319011261041b57600435611085816104b4565b6001600160a01b031680156110b3575f52600660205260206001600160401b0360405f205416604051908152f35b6323d3ad8160e21b5f5260045ffd5b3461041b575f36600319011261041b576110da613f1e565b5f80546001600160a01b0319811682556001600160a01b03167f8be0079c531659141344cd1fd0a4f28419497f9722a3daafe3b4186f6b6457e08280a3005b3461041b575f36600319011261041b57602060ff600d5460a01c166040519015158152f35b3461041b575f36600319011261041b57600e546040516001600160a01b039091168152602090f35b3461041b57606036600319011261041b57611188604435602435600435613546565b906105a360405192839283526040602084015260408301906108ae565b3461041b57602036600319011261041b57601854600435906001600160a01b031633036111fd576020817f8ee7ad6bd8b24bd970ff551c0df94b2d8e8f6affe9aa9e3a443451eb10b57d5e92601155604051908152a1005b630782484160e21b5f5260045ffd5b909161122361053a93604084526040840190610810565b916020818403910152610810565b604036600319011261041b576004356001600160401b03811161041b5761125c903690600401610d47565b906024356001600160401b03811161041b5761127c9036906004016107b2565b927f9b779b17422d0df92223018b32b4d1fa46e071723d6817e2486d003becc55f005c611ca75760017f9b779b17422d0df92223018b32b4d1fa46e071723d6817e2486d003becc55f005d335f9081526017602052604090206112e1905b5460ff1690565b611c98575f915f946112f283613691565b946112fc84613691565b965f5b85811061183d575082151580611834575b6113d5575b5050335f90815260166020526040902061133a9350611336925090506112da565b1590565b6113a5575b80341061139357803411611366575b50611357614202565b6105a36040519283928361120c565b5f8080611374819434613539565b81811561138a575b3390f115610bf3575f61134e565b506108fc61137c565b6365bc667160e11b5f5260045260245ffd5b6011546113b191612c93565b335f9081526016602052604090206113d090805460ff19166001179055565b61133f565b600a8311611825576113e690612d6f565b935f905f5b81811061177c57505050505f5b8181106114055780611315565b600d5461145790602090611429906001600160a01b03165b6001600160a01b031690565b611434848688612a1c565b60405163384320dd60e01b81529035600482015292839190829081906024820190565b03915afa908115610bf3575f9161174e575b506001600160a01b03169081156117455760405163144e654760e31b81525f6060828061149a8a3360048401612e26565b0381875afa978815610bf3575f915f935f9a61170e575b506001600160a01b038316806115cc575050826114cd91612c93565b97825b600e546114e5906001600160a01b031661141d565b90813b1561041b5760405163718ba6fb60e01b81526001600160a01b03948516600482015260248101919091529190921660448201525f606482018190529092909183916084918391905af18015610bf3576115b2575b505f6040518093637e6bf32d60e11b825281838161155e8b3360048401612e26565b03925af1918215610bf35760019261158a915f91611590575b50611583838688612a1c565b35906144dc565b016113f8565b6115ac91503d805f833e6115a48183612481565b8101906136d8565b5f611577565b806115c05f6115c693612481565b8061048d565b5f61153c565b600a54929a919491926115e7906001600160a01b031661141d565b6040516312f424b560e31b81526001600160a01b038616600482015290602090829060249082905afa908115610bf3575f916116e0575b50156116d257600e5461168091602091849190611643906001600160a01b031661141d565b6040516323b872dd60e01b81523360048201526001600160a01b0390911660248201526044810192909252909283919082905f9082906064820190565b03925af1908115610bf3575f916116a4575b506114d057505050506001915061158a565b6116c5915060203d81116116cb575b6116bd8183612481565b8101906136c3565b5f611692565b503d6116b3565b50505050506001915061158a565b611701915060203d8111611707575b6116f98183612481565b810190612e99565b5f61161e565b503d6116ef565b9193509850611734915060603d811161173e575b61172c8183612481565b810190612dfc565b929092985f6114b1565b503d611722565b6001915061158a565b61176f915060203d8111611775575b6117678183612481565b810190612de7565b5f611469565b503d61175d565b611786818b612a3e565b5115611795575b6001016113eb565b9161181d6001916117a6858c612a3e565b516118026117b587878a612d0c565b35886117dc60406117d68b8b60206117ce838389612d0c565b013595612d0c565b01612d2d565b916117e56124b2565b948552602085015260408401526001600160401b03166060830152565b61180c828b612a3e565b52611817818a612a3e565b50612d61565b92905061178d565b6332973ab360e21b5f5260045ffd5b50801515611310565b600b5491969091611856906001600160a01b031661141d565b6118b4602080611867868b89612d0c565b013561188882611878888d8b612d0c565b01355f52601560205260405f2090565b5460405162b0911d60e51b81523360048201526024810192909252604482015291829081906064820190565b0381855afa908115610bf3575f91611c7a575b5080611c6957505f61190760605f9360206118e3888d8b612d0c565b6040516313ba5eff60e11b8152910135600482015292839190829081906024820190565b03915afa928315610bf3575f925f925f95611c31575b506001600160401b0383169384611a3a575b505050505061195b61195661194a60406117d6878c8a612d0c565b6001600160401b031690565b613d55565b600c54909190611973906001600160a01b031661141d565b803b1561041b5760405163718ba6fb60e01b81525f60048201819052602482018590526001600160a01b03939093166044820152600160648201529291908390608490829085905af1908115610bf3576001936119df936119d993611a26575b50612c93565b97612d61565b91611a146119ee828987612d0c565b3560206119fc848b89612d0c565b0135611a0e60406117d6868d8b612d0c565b91614227565b611a1e828b612a3e565b525b016112ff565b806115c05f611a3493612481565b5f6119d3565b809692939496155f14611ae257505084611a5391612c93565b93905b600c54611a6b906001600160a01b031661141d565b803b1561041b5760405163718ba6fb60e01b81526001600160a01b0392831660048201526001600160401b0394909416602485015290841660448401525f6064840181905291839160849183915af18015610bf357611ace575b8080808061192f565b806115c05f611adc93612481565b5f611ac5565b600a54929650909250611b249160209190611b05906001600160a01b031661141d565b6040518080958194621c944160e81b8352600483019190602083019252565b03915afa908115610bf3575f91611c13575b506001600160a01b0381168015611bfc57600c54611bab91602091869190611b66906001600160a01b031661141d565b6040516323b872dd60e01b81523360048201526001600160a01b0390911660248201526001600160401b039092166044830152909283919082905f9082906064820190565b03925af1908115610bf3575f91611bde575b50611a5657505050509590806101f9611bd86001938c612a3e565b52611a20565b611bf6915060203d81116116cb576116bd8183612481565b5f611bbd565b50505050509590806101f9611bd86001938c612a3e565b611c2b915060203d8111611775576117678183612481565b5f611b36565b9193509350611c57915060603d8111611c62575b611c4f8183612481565b810190612d37565b91929091935f61191d565b503d611c45565b839150611bd860019399948c612a3e565b611c92915060203d8111611707576116f98183612481565b5f6118c7565b63688ce44d60e11b5f5260045ffd5b633ee5aeb560e01b5f5260045ffd5b3461041b575f36600319011261041b57602060ff600f5460a01c166040519015158152f35b3461041b57602036600319011261041b57600435611cf8816104b4565b611d00613f1e565b600b549060ff8260a01c166106e2576001600160a01b03169081156106d3576001600160a01b03191617600b55005b3461041b575f36600319011261041b57611d47613f1e565b600e805460ff60a01b1916600160a01b179055005b8015150361041b57565b3461041b57604036600319011261041b576004356001600160401b03811161041b57611d969036906004016107b2565b9060243590611da482611d5c565b6018546001600160a01b031633036111fd575f9115915b838110611dc457005b80611e0d84611dfc611dd96001958988612a1c565b35611de3816104b4565b6001600160a01b03165f90815260176020526040902090565b9060ff801983541691151516179055565b8315611e5857818060a01b03611e2c611e27838887612a1c565b613751565b167fe9668cca25138ad3c67ec987cb4843e582d8b30a9b47338c21b2c18ade5164545f80a25b01611dbb565b818060a01b03611e6c611e27838887612a1c565b167f2769b837e4baea141c34507d6de8ba3e85f351c5e72d326f7e12855240114e4d5f80a2611e52565b3461041b575f36600319011261041b57600c546040516001600160a01b039091168152602090f35b3461041b57602036600319011261041b57600435611edb816104b4565b611ee3613f1e565b600e549060ff8260a01c166106e2576001600160a01b03169081156106d3576001600160a01b03191617600e55005b3461041b575f36600319011261041b575f546040516001600160a01b039091168152602090f35b3461041b575f36600319011261041b576040515f6004548060011c9060018116908115611fe4575b6020831082146106125782855260208501919081156105f95750600114611f92576105a38461059781860382612481565b60045f9081529250907f8a35acfbc15ff81a39ae7d344fd709f28e8600b4aa8c65c6b64bfe7fe36bd19b5b818410611fd05750500161059782610587565b805484840152602090930192600101611fbd565b91607f1691611f61565b3461041b57602036600319011261041b5760043561200b816104b4565b60018060a01b03165f526017602052602060ff60405f2054166040519015158152f35b3461041b57602036600319011261041b5760043561204b816104b4565b612053613f1e565b600d549060ff8260a01c166106e2576001600160a01b03169081156106d3576001600160a01b03191617600d55005b3461041b57604036600319011261041b5760043561209f816104b4565b602435906120ac82611d5c565b335f5260086020526120d582611dfc8360405f209060018060a01b03165f5260205260405f2090565b60405191151582526001600160a01b03169033907f17307eab39ab6107e8899845ad3d59bd9653f200f220920489ca2b5937696c3190602090a3005b3461041b5761212b61212236610d77565b93929092613856565b60405160208101916020825280518093526020604083019101925f5b8181106121545783830384f35b90918451805190600782101561218e5782604060609260209460019652848101518584015201516040820152019501910193919093612147565b634e487b7160e01b5f52602160045260245ffd5b3461041b57602036600319011261041b5760206121d06004356121cb816121cb8160105461382d565b61382d565b604051908152f35b3461041b57602036600319011261041b576004356121f5816104b4565b6121fd613f1e565b6001600160a01b031680156106d3576bffffffffffffffffffffffff60a01b60185416176018555f80f35b3461041b57602036600319011261041b57600435612245816104b4565b61224d613f1e565b600f549060ff8260a01c166106e2576001600160a01b03169081156106d3576001600160a01b03191617600f55005b3461041b5761228a366107e2565b5f5b81811061229557005b6122a0818385612a1c565b35906122ab82614171565b5f83815260076020526040902080546001600160a01b038316949291903380821490871417156123e4575b600195849361237d95935f936123db575b506001600160a01b0382165f90815260066020526040902080546fffffffffffffffffffffffffffffffff0190556001600160a01b0382164260a01b17600360e01b1761233c855f52600560205260405f2090565b558760e11b811615612397575b507fddf252ad1be2c89b69c2b068fc378daa952ba7f163c4a11628f55a4df523b3ef8280a45f5260126020525f6040812055565b61239161238c60025460010190565b600255565b0161228c565b8784016123ac815f52600560205260405f2090565b54156123b9575b50612349565b885481146123b3576123d3905f52600560205260405f2090565b555f806123b3565b8390555f6122e7565b6124206113366112da9594953361240b8a60018060a01b03165f52600860205260405f2090565b9060018060a01b03165f5260205260405f2090565b61242c579291926122d6565b613ee3565b634e487b7160e01b5f52604160045260245ffd5b61010081019081106001600160401b0382111761246157604052565b612431565b606081019081106001600160401b0382111761246157604052565b90601f801991011681019081106001600160401b0382111761246157604052565b60405190610a2861010083612481565b60405190610a28608083612481565b60405190610a28606083612481565b60405190610a2860c083612481565b6001600160401b03811161246157601f01601f191660200190565b608036600319011261041b57600435612512816104b4565b6024359061251f826104b4565b604435606435926001600160401b03841161041b573660238501121561041b5783600401359261254e846124df565b9361255c6040519586612481565b808552366024828801011161041b576020815f926024610c3699018389013786010152613d69565b3461041b575f36600319011261041b576020601054604051908152f35b3461041b575f36600319011261041b57602060ff600e5460a01c166040519015158152f35b3461041b57602036600319011261041b576004356125e381613e88565b1561265457600f5460405163c87b56dd60e01b815260048101929092525f90829060249082906001600160a01b03165afa8015610bf3576105a3915f91612632575b5060405191829182610529565b61264e91503d805f833e6126468183612481565b810190613daa565b5f612625565b630a14c4b560e41b5f5260045ffd5b3461041b57602036600319011261041b57601854600435906001600160a01b031633036111fd576020817fdc3631a0d3ca4e4ee09afd4cb35ee1c0e8aead4c7ed2fe28ac3a254a9820a6d892601055604051908152a1005b3461041b575f36600319011261041b576126d3613f1e565b600f805460ff60a01b1916600160a01b179055005b3461041b57604036600319011261041b576004356024356001549081831015612782578201908183116127755780821161277a575b5081810381811161277557612731906129b9565b915f5b82821061274957604051806105a38682610906565b61276d60019161275884613ff0565b6127628288612a3e565b526118178187612a3e565b910190612734565b612ac9565b90505f61271d565b630e0d5b9360e21b5f5260045ffd5b3461041b57604036600319011261041b57602060ff6127e96004356127b5816104b4565b602435906127c2826104b4565b60018060a01b03165f526008845260405f209060018060a01b03165f5260205260405f2090565b54166040519015158152f35b3461041b575f36600319011261041b5761280d613f1e565b600c805460ff60a01b1916600160a01b179055005b3461041b57602036600319011261041b576105a361284a600435612844612944565b50613ff0565b604051918291602083526020830190610843565b3461041b57602036600319011261041b5760206121d0600435613e0c565b3461041b57602036600319011261041b57600435612899816104b4565b6128a1613f1e565b6001600160a01b031680156128f2575f80546001600160a01b03198116831782556001600160a01b0316907f8be0079c531659141344cd1fd0a4f28419497f9722a3daafe3b4186f6b6457e09080a3005b631e4fbdf760e01b5f525f60045260245ffd5b3461041b575f36600319011261041b57600d546040516001600160a01b039091168152602090f35b6001600160401b0381116124615760051b60200190565b6040519061295182612445565b606060e0835f81525f60208201525f60408201525f838201525f60808201525f60a08201525f60c08201520152565b6040519061298f602083612481565b5f80835282815b8281106129a257505050565b6020906129ad612944565b82828501015201612996565b906129c38261292d565b6129d06040519182612481565b82815280926129e1601f199161292d565b01905f5b8281106129f157505050565b6020906129fc612944565b828285010152016129e5565b634e487b7160e01b5f52603260045260245ffd5b9190811015612a2c5760051b0190565b612a08565b805115612a2c5760200190565b8051821015612a2c5760209160051b010190565b60405190612a5f82612445565b5f60e0838281528260208201528260408201528260608201528260808201528260a08201528260c08201520152565b908160a091031261041b578051612aa481611d5c565b916020820151916040810151916080606083015192015190565b6040513d5f823e3d90fd5b634e487b7160e01b5f52601160045260245ffd5b8015612775575f190190565b919091612af582614171565b6001600160a01b03918216918116829003612c72575f8381526007602052604090208054612b326001600160a01b03851633908114908314171590565b612c44575b612c3b575b506001600160a01b0382165f90815260066020526040902080545f190190556001600160a01b0384165f908152600660205260409020805460010190556001600160a01b0384164260a01b17600160e11b17612ba0845f52600560205260405f2090565b55600160e11b811615612bf5575b506001600160a01b03831690829082907fddf252ad1be2c89b69c2b068fc378daa952ba7f163c4a11628f55a4df523b3ef5f80a415612bf057610a28916141e2565b613f00565b60018301612c0b815f52600560205260405f2090565b5415612c18575b50612bae565b6001548114612c1257612c33905f52600560205260405f2090565b555f80612c12565b5f90555f612b3c565b612c686113366112da3361240b8860018060a01b03165f52600860205260405f2090565b15612b3757613ee3565b613ef2565b906004820180921161277557565b906001820180921161277557565b9190820180921161277557565b90612caa8261292d565b612cb76040519182612481565b8281528092612cc8601f199161292d565b015f5b818110612cd757505050565b6040519060408201918083106001600160401b03841117612461576020926040525f81525f8382015282828601015201612ccb565b9190811015612a2c576060020190565b6001600160401b0381160361041b57565b3561053a81612d1c565b9081606091031261041b5780519160406020830151612d5581612d1c565b92015161053a816104b4565b5f1981146127755760010190565b90612d798261292d565b612d866040519182612481565b8281528092612d97601f199161292d565b015f5b818110612da657505050565b6040519060808201918083106001600160401b03841117612461576020926040525f81525f838201525f60408201525f606082015282828601015201612d9a565b9081602091031261041b575161053a816104b4565b9081606091031261041b578051612e12816104b4565b916040602083015192015161053a816104b4565b6060602091604081019360018060a01b031681526040838201528451809452019201905f5b818110612e585750505090565b909192602060806001926001600160401b03606088518051845285810151868501526040810151604085015201511660608201520194019101919091612e4b565b9081602091031261041b575190565b9391909293612eca6112da8260018060a01b03165f52601760205260405f2090565b611c9857612ee0612edb8484612c93565b612ca0565b94600194612f046113366112da8560018060a01b03165f52601660205260405f2090565b613455575b600b549194915f90612f23906001600160a01b031661141d565b905b8581106132da575050612f3784612d6f565b935f5b81811061325e575050600d545f929150612f5c906001600160a01b031661141d565b915b818110612fed57505050505050612f7481612ca0565b915f905f5b838110612f87575050505090565b6020612f938284612a3e565b510151612fa3575b600101612f79565b91612fe56001916020612fb68686612a3e565b5101516020612fc5838a612a3e565b510152612fd28585612a3e565b5151612fde8289612a3e565b5152612d61565b929050612f9b565b61301d6020612ffd83858a612a1c565b60405163384320dd60e01b81529035600482015291829081906024820190565b0381875afa908115610bf3575f91613240575b506001600160a01b03168015613237576060604051809263144e654760e31b825281806130618b8b60048401612e26565b03915afa908115610bf3575f905f92613215575b506001600160a01b0381166130aa5750906001916130a160206130978c612a31565b5101918251612c93565b90525b01612f5e565b600a546130bf906001600160a01b031661141d565b6040516312f424b560e31b81526001600160a01b0383166004820152602081602481855afa908115610bf3575f916131f7575b5080156131eb575f9060015b8d8d82106131a9575b5050501561311b575b5050506001906130a4565b6040516312f424b560e31b81526001600160a01b0392909216600483015292989192909190602090839060249082905afa928315610bf357600193613182935f9161318b575b5061316c838d612a3e565b5152602061317a838d612a3e565b510152612d61565b96905f80613110565b6131a3915060203d8111611707576116f98183612481565b5f613161565b6131b4828492612a3e565b5151146131c3576001016130fe565b602092506131d291508d612a3e565b51016131df848251612c93565b905260015f808d613107565b505050506001906130a4565b61320f915060203d8111611707576116f98183612481565b5f6130f2565b905061322f915060603d811161173e5761172c8183612481565b50905f613075565b506001906130a4565b613258915060203d8111611775576117678183612481565b5f613030565b8061326f60019284869a979a612d0c565b356132bb6020613280848789612d0c565b013561329260406117d686898b612d0c565b9061329b6124b2565b935f85526020850152604084015260608301906001600160401b03169052565b6132c58289612a3e565b526132d08188612a3e565b5001959295612f3a565b6132f361195661194a60406117d6858b899d9a9d612d0c565b61330160206130978c612a31565b905261333660606020613315848a88612d0c565b6040516313ba5eff60e11b8152910135600482015291829081906024820190565b0381865afa908115610bf3578a905f905f93613431575b50806133855750906133796001600160401b03602061336e60019695612a31565b510192168251612c93565b90525b01959295612f25565b5f92919260015b8c81106133dd575b50156133a6575b50505060019061337c565b91602061317a8c6001600160401b0381956001989f976133c96133d29988612a3e565b51521693612a3e565b979050885f8061339b565b90919293836133ec8383612a3e565b5151146134015750600101908c93929161338c565b9392915061341160209185612a3e565b51016134276001600160401b0384168251612c93565b905260015f613394565b905061344c91925060603d8111611c6257611c4f8183612481565b5091905f61334d565b60115461346660206130978a612a31565b9052612f09565b906134778261292d565b6134846040519182612481565b8281528092613495601f199161292d565b01905f5b8281106134a557505050565b6020906134b0612a52565b82828501015201613499565b908161010091031261041b5760e0604051916134d783612445565b805183526020810151602084015260408101516040840152606081015160608401526080810151608084015260a081015160a084015260c081015160c0840152015160e082015290565b81810392915f13801582851316918412161761277557565b9190820391821161277557565b6040516380d660bd60e01b815260048101829052909392919060a08160248173__$3064ee7f6debc1f63b1d53cb6cfb6ea650$__5af4908115610bf3575f9161366e575b5015610ba4576135a2845f52601460205260405f2090565b548082101561364b576135b58282613521565b925f841315612782576135d8926135d3918061366857508492613521565b613521565b5f81121561366357505f5b80821061365c576135f48183613539565b915b821561364b57613605836129b9565b945f5b83831161361757505050509190565b61363f61364591611802613639866001610b0b885f52601460205260405f2090565b54613ff0565b92612add565b91613608565b5050509050613658612980565b5f91565b5f916135f6565b6135e3565b92613521565b613687915060a03d60a011610bec57610bd88183612481565b505050505f61358a565b9061369b8261292d565b6136a86040519182612481565b82815280926136b9601f199161292d565b0190602036910137565b9081602091031261041b575161053a81611d5c565b60208183031261041b578051906001600160401b03821161041b57019080601f8301121561041b57815161370b8161292d565b926137196040519485612481565b81845260208085019260051b82010192831161041b57602001905b8282106137415750505090565b8151815260209182019101613734565b3561053a816104b4565b60408051919061376b9083612481565b6001825281601f1961377d600161292d565b01905f5b82811061378d57505050565b60209060405161379c81612466565b5f81525f838201525f604082015282828501015201613781565b906137c08261292d565b6137cd6040519182612481565b82815280926137de601f199161292d565b01905f5b8281106137ee57505050565b6020906040516137fd81612466565b5f81525f838201525f6040820152828285010152016137e2565b908160011b918083046002149015171561277557565b8181029291811591840414171561277557565b919082604091031261041b576020825192015190565b9093916138766112da8360018060a01b03165f52601760205260405f2090565b613d195761389361388e61388983613817565b612c77565b6137b6565b946138a2845f96848487612ea8565b80516001600160a01b0385165f9081526016602052604090206138c890611336906112da565b613d01575b600a545f906138e4906001600160a01b031661141d565b905b828110613b4557505050505f73__$3064ee7f6debc1f63b1d53cb6cfb6ea650$__905b83811061399d575050505050600a10613960575b613926816137b6565b915f5b8281106139365750505090565b8061394360019284612a3e565b5161394e8287612a3e565b526139598186612a3e565b5001613929565b61399761396b6124c1565b60068152915f60208401525f604084015261398581612d61565b926139908286612a3e565b5283612a3e565b5061391d565b600b54613a10906020906139b9906001600160a01b031661141d565b816139c5858989612d0c565b0135906139d783611878878b8b612d0c565b5460405162b0911d60e51b81526001600160a01b038b166004820152602481019390935260448301529092839190829081906064820190565b03915afa908115610bf3575f91613b27575b5080613ae7575b508060a0613a3b613a5b938787612d0c565b6040516380d660bd60e01b81529035600482015292839081906024820190565b0381865af48015610bf3576001925f91613ac5575b5015613a7d575b01613909565b613abf613a8b828787612d0c565b3598613a956124c1565b995f8b5260208b01525f60408b0152613aad81612d61565b99613ab8828d612a3e565b528a612a3e565b50613a77565b613add915060a03d8111610bec57610bd88183612481565b505050505f613a70565b9690613b20613a5b926020613afd848989612d0c565b013599613b086124c1565b600281529a60208c015260408b0152613aad81612d61565b5090613a29565b613b3f915060203d8111611707576116f98183612481565b5f613a22565b8015613c8e57613b558185612a3e565b51516040886020613b668589612a3e565b51015182516369988fe560e11b815260048101949094526001600160a01b03919091166024840152604483015281606481865afa8015610bf3578b915f905f92613c5d575b5080613c18575b5080613bc5575b50506001905b016138e6565b613c01613c0e91613c0785949d613bde6001978b612a3e565b515192613be96124c1565b60058152936020850152604084015280938491612d61565b9e612a3e565b528c612a3e565b509050895f613bb9565b9a613c5690613c278589612a3e565b51519c6040613c346124c1565b600481529e8f9060208201520152613c4b81612d61565b9c6139908286612a3e565b505f613bb2565b9050613c80915060403d8111613c87575b613c788183612481565b810190613840565b905f613bab565b503d613c6e565b898731806020613c9d88612a31565b51015111613cb0575b5050600190613bbf565b613c01600193929b613c07613cd5613cf7946020613ccd8c612a31565b510151613539565b91613cde6124c1565b60048152925f6020850152604084015280938491612d61565b509050895f613ca6565b601154613d12602061309785612a31565b90526138cd565b5050505050613d2661375b565b613d2e6124c1565b600181525f60208201525f6040820152613d4782612a31565b52613d5181612a31565b5090565b61053a906121cb816121cb8160105461382d565b929190613d77828286612ae9565b803b613d84575b50505050565b613d8d936145e0565b15613d9b575f808080613d7e565b6368d2bf6b60e11b5f5260045ffd5b60208183031261041b578051906001600160401b03821161041b570181601f8201121561041b57805190613ddd826124df565b92613deb6040519485612481565b8284526020838301011161041b57815f9260208093018386015e8301015290565b5f9081526012602090815260409182902060020154600b54925163674802a160e11b8152600481018290529092909190829060249082906001600160a01b03165afa908115610bf3575f91613e69575b50613e645790565b505f90565b613e82915060203d6020116116cb576116bd8183612481565b5f613e5c565b905f918060011115613e975750565b6001548110613ea35750565b9091505b805f52600560205260405f20549081613ec957613ec49150612add565b613ea7565b50600160e01b161590565b6367d9dca160e11b5f5260045ffd5b632ce44b5f60e11b5f5260045ffd5b62a1148160e81b5f5260045ffd5b633a954ecd60e21b5f5260045ffd5b636f96cda160e11b5f5260045ffd5b5f546001600160a01b03163303613f3157565b63118cdaa760e01b5f523360045260245ffd5b9060405160c081018181106001600160401b038211176124615760405260a06001600160401b0360048395805485526001810154602086015260028101546040860152600381015460608601520154600180841b0381166080850152821c16910152565b90604051918281549182825260208201905f5260205f20925f5b818110613fd7575050610a2892500383612481565b8454835260019485019487945060209093019201613fc2565b613ff8612944565b61401261400d835f52601260205260405f2090565b613f44565b600b5490919061402a906001600160a01b031661141d565b60408381018051915163674802a160e11b815260048101929092529291602090829060249082905afa908115610bf3575f91614152575b508015614131575b801561411f575b61411857509061410b6141109251916140fb81519160208101516060820151906140b860806140a960a08601516001600160401b031690565b9401516001600160a01b031690565b946140cb8a5f52601360205260405f2090565b976140d46124a2565b9a8b5260208b015260408a0152606089015260808801526001600160401b031660a0870152565b6001600160a01b031660c0850152565b613fa8565b60e082015290565b9250505090565b5061412c61133685613e88565b614070565b50608083015161414d906112da906001600160a01b0316611de3565b614069565b61416b915060203d6020116116cb576116bd8183612481565b5f614061565b80600111613f0f5761418b815f52600560205260405f2090565b549081156141a25750600160e01b8116613f0f5790565b90506001548110156141dd575b5f19015f818152600560205260409020549081156141d65750600160e01b8116613f0f5790565b90506141af565b613f0f565b6001600160a01b0316156141f35750565b5f5260126020525f6040812055565b5f7f9b779b17422d0df92223018b32b4d1fa46e071723d6817e2486d003becc55f005d565b6040516380d660bd60e01b81526004810182905273__$3064ee7f6debc1f63b1d53cb6cfb6ea650$__9392919060a081602481885af4908115610bf3575f916144b9575b50156144a7576001549361427e33614685565b614290835f52601560205260405f2090565b61429a8154612c85565b90556142b76142b1835f52601460205260405f2090565b54612c85565b906143636142c36124d0565b84815260208101849052604081018690524260608201523360808201526001600160401b03871660a0820152614301885f52601260205260405f2090565b8151815560208201516001820155604082015160028201556060820151600382015560808201516004909101805460a0938401516001600160a01b039093166001600160e01b0319909116179190921b67ffffffffffffffff60a01b16179055565b6001600160401b0385166001036143e457508461438e826001610b0b865f52601460205260405f2090565b556143a1825f52601460205260405f2090565b555b604080518581526001600160401b0394909416602085015233937f8d0fc1b8dc2e3bf98f62966d617f50d20cd79c67a3a8c1cea930d8f400b767919190a490565b60405163193be05d60e21b8152600481018490526001600160401b038616602482015296929594929391505f90879060449082905af4958615610bf3575f9661448b575b505f5b86518110156144805780808661446b8a6001610b0b6144546144636142b1614454859b87612a3e565b515f52601460205260405f2090565b968794612a3e565b55614479614454838b612a3e565b550161442b565b5091945091926143a3565b6144a09196503d805f833e6115a48183612481565b945f614428565b63ded646bd60e01b5f5260045260245ffd5b6144d2915060a03d60a011610bec57610bd88183612481565b505050505f61426b565b91905f5b8351811015614565576144f38185612a3e565b515f52601360205260405f2090815491680100000000000000008310156124615760018301808255831015612a2c5760019284915f5260205f2001556145398186612a3e565b51837f77a1aa52bbb767d283ed26844191b08f3496b516db66d6c195bb53af5eafca505f80a3016144e0565b50509050565b9081602091031261041b575161053a81610409565b6001600160a01b03918216815291166020820152604081019190915260806060820181905261053a92910190610505565b3d156145db573d906145c2826124df565b916145d06040519384612481565b82523d5f602084013e565b606090565b906020925f614608959360405196879586948593630a85bd0160e11b85523360048601614580565b03926001600160a01b03165af15f9181614654575b5061463e5761462a6145b1565b80511561463957805190602001fd5b613d9b565b6001600160e01b031916630a85bd0160e11b1490565b61467791925060203d60201161467e575b61466f8183612481565b81019061456b565b905f61461d565b503d614665565b6001545f8181526005602052604090209192916001600160a01b0384164260a01b17600160e11b1790556001600160a01b0383165f9081526006602052604090208054680100000000000000010190556001600160a01b038316918215614746576001820191809460015b15614723575b5f86865f7fddf252ad1be2c89b69c2b068fc378daa952ba7f163c4a11628f55a4df523b3ef8180a46146f0565b94600101948386036146f65791945091610a28935061474190600155565b6141e2565b622e076360e81b5f5260045ffdfea26469706673582212205a1d77610d0342a0e32c20809ff2bce09d2d225ad00090f0e686d50a73f48e8164736f6c634300081a0033","linkReferences":{"lib/block-places/src/BlockPlaces.sol":{"BlockPlaces":[{"start":3733,"length":20},{"start":14744,"length":20},{"start":15653,"length":20},{"start":18030,"length":20}]}}},"methodIdentifiers":{"approve(address,uint256)":"095ea7b3","balanceOf(address)":"70a08231","banPlayers(address[],bool)":"81040087","burn(uint256[])":"b80f55c9","checkSlaps(address,(uint256,uint256,uint64)[],uint256[])":"a2e655f2","costOfSlaps(address,(uint256,uint256,uint64)[],uint256[])":"5cedc079","getApproved(uint256)":"081812fc","getPlace(uint256)":"197c3555","getPlaceSlaps(uint256,uint256,uint256)":"73ea2b86","getPlaces(uint256[])":"60900ece","getSlap(uint256)":"ed82107f","getSlapStickerId(uint256)":"ee3d7348","getSlaps(uint256,uint256)":"e220c54a","getSlaps(uint256[])":"0d4d7527","initiatedPlayers(address)":"04c3a2e5","isApprovedForAll(address,address)":"e985e9c5","isBanned(address)":"97f735d5","lockMetadataRendererContract()":"cdf9955c","lockObjectivePayoutMethodContract()":"80e39634","lockPaymentMethodContract()":"6c5c3aba","lockPublisherPayoutMethodContract()":"eb34a4cb","lockStickerDesignsContract()":"27102dfa","lockStickerObjectivesContract()":"6d7480a7","metadataRenderer()":"70319970","metadataRendererIsLocked()":"7d6f6aa0","name()":"06fdde03","nextSlapId()":"4ad8a97b","objectivePayoutMethod()":"727b2261","objectivePayoutMethodIsLocked()":"bb77b166","operator()":"570ca735","owner()":"8da5cb5b","ownerOf(uint256)":"6352211e","paymentMethodContract()":"60bc18a2","paymentMethodContractIsLocked()":"54e052bc","playerReputationFee()":"023a6895","publisherPayoutMethod()":"879331d5","publisherPayoutMethodIsLocked()":"64a72915","renounceOwnership()":"715018a6","safeTransferFrom(address,address,uint256)":"42842e0e","safeTransferFrom(address,address,uint256,bytes)":"b88d4fde","setApprovalForAll(address,bool)":"a22cb465","setMetadataRendererContract(address)":"b4ace3bf","setObjectivePayoutMethodContract(address)":"8a8f3536","setOperator(address)":"b3ab15fb","setPaymentMethodContract(address)":"3110756a","setPlayerReputationFee(uint256)":"74eeb280","setPublisherPayoutMethodContract(address)":"082d67a9","setSlapFee(uint256)":"c8d067bb","setStickerDesignsContract(address)":"80d333d8","setStickerObjectivesContract(address)":"990f9de4","slap((uint256,uint256,uint64)[],uint256[])":"76b0af19","slapFee()":"bb4248d1","slapFeeForSize(uint256)":"b2870e2a","stickerDesignsContract()":"7063df24","stickerDesignsContractIsLocked()":"0f4fe773","stickerObjectivesContract()":"f8e4013c","stickerObjectivesContractIsLocked()":"722f7fc7","supportsInterface(bytes4)":"01ffc9a7","symbol()":"95d89b41","tokenURI(uint256)":"c87b56dd","totalSupply()":"18160ddd","transferFrom(address,address,uint256)":"23b872dd","transferOwnership(address)":"f2fde38b"},"id":47}